:020000040000fa
:080000000002040000000000f2
:020000040000fa
:0400080006030000eb
:020000040000fa
:04000c0018030000d5
:020000040000fa
:0400100030030000b9
:020000040000fa
:040014000e030000d7
:020000040000fa
:0400180020030000c1
:020000040000fa
:04001c0028030000b5
:020000040000fa
:0400200038030000a1
:020000040000fa
:04002400e4030000f1
:020000040000fa
:04002800e4030000ed
:020000040000fa
:04002c00e4030000e9
:020000040000fa
:04003000e4030000e5
:020000040000fa
:04003400e4030000e1
:020000040000fa
:04003800e4030000dd
:020000040000fa
:04003c00e4030000d9
:020000040000fa
:04004000e4030000d5
:020000040000fa
:04004400e4030000d1
:020000040000fa
:04004800e4030000cd
:020000040000fa
:04004c00e4030000c9
:020000040000fa
:04005000e4030000c5
:020000040000fa
:04005400e4030000c1
:020000040000fa
:04005800e4030000bd
:020000040000fa
:04005c00e4030000b9
:020000040000fa
:04006000e4030000b5
:020000040000fa
:04006400e4030000b1
:020000040000fa
:04006800c6030000cb
:020000040000fa
:04006c00a8030000e5
:020000040000fa
:04007000e4030000a5
:020000040000fa
:040074007a0300000b
:020000040000fa
:04007800e40300009d
:020000040000fa
:04007c00e403000099
:020000040000fa
:04008000e403000095
:020000040000fa
:04008400e403000091
:020000040000fa
:04008800e40300008d
:020000040000fa
:04008c00e403000089
:020000040000fa
:04009000e403000085
:020000040000fa
:04009400e403000081
:020000040000fa
:04009800e40300007d
:020000040000fa
:04009c00e403000079
:020000040000fa
:0400a000e403000075
:020000040000fa
:0400a400e403000071
:020000040000fa
:0400a800e40300006d
:020000040000fa
:0400ac00e403000069
:020000040000fa
:0400b000e403000065
:020000040000fa
:0400b400e403000061
:020000040000fa
:0400b800e40300005d
:020000040000fa
:0400bc00e403000059
:020000040000fa
:0400c000e403000055
:020000040000fa
:0400c400e403000051
:020000040000fa
:0400c800e40300004d
:020000040000fa
:0400cc00e403000049
:020000040000fa
:0400d000e403000045
:020000040000fa
:0400d400e403000041
:020000040000fa
:0400d800e40300003d
:020000040000fa
:0400dc00e403000039
:020000040000fa
:0400e000e403000035
:020000040000fa
:0400e400e403000031
:020000040000fa
:0400e800e40300002d
:020000040000fa
:0400ec00e403000029
:020000040000fa
:0400f000e403000025
:020000040000fa
:0400f400e403000021
:020000040000fa
:0400f800e40300001d
:020000040000fa
:0400fc00e403000019
:020000040000fa
:04010000e403000014
:020000040000fa
:04010400e403000010
:020000040000fa
:04010800e40300000c
:020000040000fa
:04010c00e403000008
:020000040000fa
:04011000e403000004
:020000040000fa
:04011400e403000000
:020000040000fa
:04011800e4030000fc
:020000040000fa
:04011c00e4030000f8
:020000040000fa
:04012000e4030000f4
:020000040000fa
:04012400e4030000f0
:020000040000fa
:04012800e4030000ec
:020000040000fa
:04012c00e4030000e8
:020000040000fa
:04013000e4030000e4
:020000040000fa
:04013400e4030000e0
:020000040000fa
:04013800e4030000dc
:020000040000fa
:04013c00e4030000d8
:020000040000fa
:04014000e4030000d4
:020000040000fa
:04014400e4030000d0
:020000040000fa
:04014800e4030000cc
:020000040000fa
:04014c00e4030000c8
:020000040000fa
:04015000e4030000c4
:020000040000fa
:04015400e4030000c0
:020000040000fa
:04015800e4030000bc
:020000040000fa
:04015c00e4030000b8
:020000040000fa
:04016000e4030000b4
:020000040000fa
:04016400e4030000b0
:020000040000fa
:04016800e4030000ac
:020000040000fa
:04016c00e4030000a8
:020000040000fa
:04017000e4030000a4
:020000040000fa
:04017400e4030000a0
:020000040000fa
:04017800e40300009c
:020000040000fa
:04017c00e403000098
:020000040000fa
:04018000e403000094
:020000040000fa
:04018400e403000090
:020000040000fa
:04018800e40300008c
:020000040000fa
:04018c00e403000088
:020000040000fa
:04019000e403000084
:020000040000fa
:04019400e403000080
:020000040000fa
:04019800e40300007c
:020000040000fa
:04019c00e403000078
:020000040000fa
:0401a000e403000074
:020000040000fa
:0401a400e403000070
:020000040000fa
:0401a800e40300006c
:020000040000fa
:0401ac00e403000068
:020000040000fa
:0401b000e403000064
:020000040000fa
:0401b400e403000060
:020000040000fa
:0401b800e40300005c
:020000040000fa
:0401bc00e403000058
:020000040000fa
:0401c000e403000054
:020000040000fa
:0401c400e403000050
:020000040000fa
:0401c800e40300004c
:020000040000fa
:0401cc00e403000048
:020000040000fa
:0401d000e403000044
:020000040000fa
:0401d400e403000040
:020000040000fa
:0401d800e40300003c
:020000040000fa
:0401dc00e403000038
:020000040000fa
:0401e000e403000034
:020000040000fa
:0401e400e403000030
:020000040000fa
:0401e800e40300002c
:020000040000fa
:0401ec00e403000028
:020000040000fa
:0401f000e403000024
:020000040000fa
:0401f400e403000020
:020000040000fa
:0401f800e40300001c
:020000040000fa
:0401fc00e403000018
:020000040000fa
:04020000e403000013
:020000040000fa
:04020400e40300000f
:020000040000fa
:04020800e40300000b
:020000040000fa
:04020c00e403000007
:020000040000fa
:04021000e403000003
:020000040000fa
:04021400e4030000ff
:020000040000fa
:04021800e4030000fb
:020000040000fa
:04021c00e4030000f7
:020000040000fa
:04022000e4030000f3
:020000040000fa
:04022400e4030000ef
:020000040000fa
:04022800e4030000eb
:020000040000fa
:04022c00e4030000e7
:020000040000fa
:04023000e4030000e3
:020000040000fa
:04023400e4030000df
:020000040000fa
:04023800e4030000db
:020000040000fa
:04023c00e4030000d7
:020000040000fa
:04024000e4030000d3
:020000040000fa
:04024400e4030000cf
:020000040000fa
:04024800e4030000cb
:020000040000fa
:04024c00e4030000c7
:020000040000fa
:04025000e4030000c3
:020000040000fa
:04025400e4030000bf
:020000040000fa
:04025800e4030000bb
:020000040000fa
:04025c00e4030000b7
:020000040000fa
:04026000e4030000b3
:020000040000fa
:04026400e4030000af
:020000040000fa
:04026800e4030000ab
:020000040000fa
:04026c00e4030000a7
:020000040000fa
:04027000e4030000a3
:020000040000fa
:04027400e40300009f
:020000040000fa
:04027800e40300009b
:020000040000fa
:04027c00e403000097
:020000040000fa
:04028000e403000093
:020000040000fa
:04028400e40300008f
:020000040000fa
:04028800e40300008b
:020000040000fa
:04028c00e403000087
:020000040000fa
:04029000e403000083
:020000040000fa
:04029400e40300007f
:020000040000fa
:04029800e40300007b
:020000040000fa
:04029c00e403000077
:020000040000fa
:0402a000e403000073
:020000040000fa
:0402a400e40300006f
:020000040000fa
:0402a800e40300006b
:020000040000fa
:0402ac00e403000067
:020000040000fa
:0402b000e403000063
:020000040000fa
:0402b400e40300005f
:020000040000fa
:0402b800e40300005b
:020000040000fa
:0402bc00e403000057
:020000040000fa
:0402c000e403000053
:020000040000fa
:0402c400e40300004f
:020000040000fa
:0402c800e40300004b
:020000040000fa
:0402cc00e403000047
:020000040000fa
:0402d000e403000043
:020000040000fa
:0402d400e40300003f
:020000040000fa
:0402d800e40300003b
:020000040000fa
:0402dc00e403000037
:020000040000fa
:0402e000e403000033
:020000040000fa
:0402e400e40300002f
:020000040000fa
:0402e800e40300002b
:020000040000fa
:0402ec00e403000027
:020000040000fa
:0402f000e403000023
:020000040000fa
:0402f400e40300001f
:020000040000fa
:0402f800e40300001b
:020000040000fa
:0402fc00e403000017
:020000040000fa
:04030000e403000012
:020000040000fa
:04030400e40300000e
:020000040000fa
:04030800e40300000a
:020000040000fa
:04030c00e403000006
:020000040000fa
:04031000e403000002
:020000040000fa
:100400008f1b21000eff21000e018800000000005c
:10041000000020000000e000020032000001200087
:100420002002880014000700e90007000000e00037
:1004300003003a00800b2200010020000200370078
:100440000000200001002000810f70000100320038
:100450000f000700000020000000e0000200320052
:100460000000020000000000ee1302000000000087
:100470000040da000000fe00c00020000000e000a4
:1004800002003200002020009001880000000600d9
:10049000a1028800800478000000eb001f003700f4
:1004a000e284440054a0b4009905ba00e2844400f8
:1004b00054a0b4009906ba00e284440054a0b400e9
:1004c0000006eb00476fde00fd07b200ae018800ba
:1004d000636ce10003003a000ad801000000eb0061
:1004e0000e003700606ce10008003a00004deb00a0
:1004f0000a05e800020039003420ec000af0a000f0
:100500008b05e900f9ff3e00040037006168e10057
:10051000010032000086eb000b00070019c7ba008b
:100520000e04e0001905ba0003003a000a00e000da
:10053000dbff3a0000000600fe07b200ae028800b2
:100540008a047800f5ff37000cd0a300e20f4d00bd
:100550001c00390089027800354dba000a05e80010
:10056000020039003420ec000af0a0008b05e900fd
:100570000f003200254dba000a05e80002003900dc
:100580003420ec000af0a0008b05e90008003200de
:100590000c00e0000600320015cdba000a05e800a4
:1005a000020039003420ec000af0a0008b05e900bd
:1005b0008984e80054a0b4000b00e000e2ff3a0098
:1005c000000006009902ba00055d78008b05e9007d
:1005d000f7ff3200c82ade00055d78008b05e900d0
:1005e000f3ff32000c00e000f1ff320019ddba0029
:1005f000eeff3700000000000000000000000000d7
:100600000000000000000000000000003600f800bc
:10061000c028a9000000eb00c81007003600f80051
:10062000ca100700c048a90010002000c31007002e
:100630003600f800c068a90020002000bf100700a5
:100640003600f800c088a90030002000bb10070069
:100650003600f800c0a8a90040002000b71007002d
:100660003600f800c608a90070002000b31007008b
:100670003600f80021468000001020000080600055
:100680000000e00003003200c508a900c0002000ff
:10069000aa100700214680000000280000806000aa
:1006a0000000e00003003200c5e8a900800020003f
:1006b000a210070021468000000220000080600098
:1006c0000000e00003003200c4a8a9009000200050
:1006d0009a10070020468000700060000000e000d3
:1006e00003003200c488a900a00020009310070076
:1006f000ffff37003600f800809fbe00829fbe00db
:10070000849fbe00869fbe000000fa00104080005b
:10071000680060000000e00006003200c08b80002e
:100720000000e00002003200c08b800000000100e9
:100730000268a9000080fa004f03be004f02be000d
:100740004f01be004f00be003600f9000040060019
:100750003600f800809fbe00829fbe00849fbe00ce
:10076000869fbe000000fa00908b80000000010010
:100770000080fa004f03be004f02be004f01be00d2
:100780004f00be003600f900004006003600f800b9
:10079000809fbe00829fbe00849fbe00869fbe00d9
:1007a0000000fa00a08b8000000001000080fa0029
:1007b0004f03be004f02be004f01be004f00be00ff
:1007c0003600f900004006000040da000000fe009c
:1007d00000000500839f68000100e00002003d006a
:1007e00060001000e08018000300e00002003d00ff
:1007f00060011100e0811900050007004f00e000d2
:1008000002003b0060001000e080180000000600bd
:100810006022b800060220000000d0008180d200d3
:100820000482d2008582d2000000a00002025200a1
:1008300083825a00030031000202420083824a0090
:100840000000a1000603e900f3ff3a0000000600e3
:1008500080007800010178003104e000fdff3a00db
:100860000000510000000600881f78000204780094
:1008700008017800e6010700080040004f047800f6
:10088000000006000000fa00881f780000047800cd
:10089000ea8157003fb99700880078004043200064
:1008a000070007000000e0000200350000044400db
:1008b000004ceb004f0478000080fa0000000600b6
:1008c0006200fa00889fbe008a1f78000005780049
:1008d00081047800020478008300780080f92f00fa
:1008e0000f004000d60307009a979f00a9979f002a
:1008f0000000eb00b09f9f001885fb008a04fb00fe
:100900000a05ea004f55de0050022000808f540097
:100910000d003200e10f55000b003a000a0178008b
:10092000880078002f9097009f91970003000100a6
:10093000a0979f000000e0008e0032003f989700d3
:100940000000e800b09f9f000a044400500220000d
:10095000808f5400040032000900e000e6ff3a00f6
:100960003f989700840037000000eb00909f9f00a5
:10097000809f9f00f0979f00e0979f00d0979f0077
:10098000c0979f0007003700211b21000100500085
:1009900000004000611a2100808040005f989700ad
:1009a00011007000d09f9f0088047800090478002f
:1009b000384578008a00fb00201b21009b010700be
:1009c0000000e000f0ff3a00a1c2b300814f5500e3
:1009d0000e003a00cf8897000180e900c08f9f0089
:1009e00010007800c09f9f000000e00005003d005f
:1009f0000000ea00c09f9f005f9897000020a000c1
:100a0000d09f9f000904e8000f003700c09f9f009f
:100a10000000eb0005003700f2ff2700820f5000b6
:100a200002003200ea00b9000080400009047800aa
:100a300088047800b900fb000103b100e98f500081
:100a4000f5ff3600c09f9f00e0c2b300984f100032
:100a5000020032000080eb0019003700a0c2b30092
:100a6000d84f100007003a00cf8897000180e900b6
:100a7000c08f9f0010007800a09f9f000804e8002e
:100a8000100037000000eb00a09f9f008800780056
:100a900005003700f3ff2700830f500002003200eb
:100aa000ea00b900000041000104780088007800e5
:100ab0003101fb000203b100e90f5100f5ff3600e0
:100ac000a09f9f00984478008900fb00e019210056
:100ad000560107000000e000020032000804e800b0
:100ae000010037008044eb00c97f9f0080c6b3003f
:100af00080cf540004003a0098cf14000a003a0056
:100b00006640500006003700c0c6b30080cf5400d6
:100b100005003a0098cf140003003a0065404000f9
:100b2000c07f9f000804e8001801fb00e3fb2f00d2
:100b30008f81410081f92f008f804000a0f92f00a4
:100b40000f004000100007000000e00009003a001c
:100b5000e1fb2f008f804000a0f92f000f00400024
:100b60007b0207000000e000020035000804e800f6
:100b700061ff37000080eb004f0578004f04be0096
:100b80000080fa0000000600889fbe008a9fbe0019
:100b9000e4c6b300844f5100ce00320010003c0088
:100ba0006b425200844f51001800320005003c0097
:100bb00054c2b300844f51000601320084c5b30013
:100bc0000f00370044c6b300844f510015003200b7
:100bd00065424200844f510001013a001100370084
:100be00004c7b300844f5100ed0032005f003500b0
:100bf00065424200844f51005c0032006342420073
:100c0000844f5100f6003a00580037001181e90086
:100c100082087800f00090008181410092497800bc
:100c2000f500370020629000c5c6b300854f520022
:100c300008003a009102780064825200840878002b
:100c400094029000140278004fabde008603780017
:100c50001600370015c7b300854f520003003a0055
:100c6000110478006802540005003700a5c6b300df
:100c7000854f520008003a009104780068825400c1
:100c8000840878009402900024039000b40390003c
:100c900014027800050037001182e900840878000a
:100ca00014027800cfa2de00612bb9000498be00c8
:100cb0000690be00a060900088c6b30088cf5000a8
:100cc0000d00320028c6b30088cf500004003a005f
:100cd0000402fb00cfa2de00612bb9000800370040
:100ce00048c7b30088cf5000030032006644440078
:100cf00088cf500004003a00cfa2de00612bb9007b
:100d00000498be000690be00100278009002900089
:100d100020039000b0039000f0009000e00f52001c
:100d2000e08f5a00e00f5b00e08f5b0003003d00a6
:100d300001824100d5c2b3000a00370000129000c2
:100d40000418a3000300320001824100b5c2b300c1
:100d5000040037000408a30059003200018241005a
:100d600005c2b300054a78005300370020629000a6
:100d7000c5c6b300854f520009003a00110578003e
:100d800064025500840878001404780094049000ec
:100d90006055b8000802be000a03be001600370006
:100da00015c7b300854f520003003a009104780044
:100db0006882540005003700a5c6b300854f520075
:100dc00008003a0011057800680255008408780090
:100dd0009402900024039000b40390001402780061
:100de000050037001182e9008408780014027800b9
:100df0008002eb006033b8000498be000690be008d
:100e0000a060900088c6b30088cf50000d0032006b
:100e100028c6b30088cf500004003a000482fb00cb
:100e20008002eb006033b8000800370048c7b30009
:100e300088cf5000030032006644440088cf500041
:100e400004003a008002eb006033b8000498be0052
:100e50000690be00801090000138a30018003200f8
:100e6000100278009002900020039000b0039000e0
:100e7000e00f5200e08f5a00e00f5b00e08f5b0054
:100e80000f00320081c7b300814f510003003200d0
:100e900081c5b300814f510009003a00f000900075
:100ea0000182410005c3b300054a78008100e800d3
:100eb00001824100024a78008100e8007100980038
:100ec000f00090008181410063009800824078002a
:100ed0003e003700a0619000c4c6b3001181e90054
:100ee00084cf5100220032000a003c0064425200cc
:100ef00084cf51002500320004c2e80084cf5100a5
:100f0000130032006842520084cf51001e003a00a4
:100f10000a00370044c7b30084cf51001b003200e1
:100f20006642420084cf51001800320069425200ec
:100f300084cf510014003a00050037008208780081
:100f40009200780040589000804878002c003700cc
:100f50008208780092007800600a9000cfa2de003c
:100f6000612bb9008498be008690be002400370033
:100f7000820878009200780060099000cf91de002e
:100f80008288be001e0037001181e90082087800c7
:100f90009200780060089000800878001800370000
:100fa0001181e9008208780012027800cfa2de00e9
:100fb000612bb9000498be000690be00f0009000be
:100fc000818141006300980081c7b30023000700be
:100fd0000b003700f00090008181410005003700d0
:100fe000f0009000818141000204e00001003a001d
:100ff00052c2b300824978008100e8007100980075
:101000000000eb004f05be004f04be0000000600cc
:101010008001780002003700b15978000201e90030
:101020000200e000fcff3a0000000600020037006a
:101030000304e0000600320000017800020078009e
:10104000b041780081cf5100f9ff3a00010037002c
:101050000001eb000200780000000600fc8747005a
:10106000889fbe008a9fbe008c9fbe008e1f7800a6
:101070000006780080c5b30080cf50000a0032001f
:101080007740400080cf50000a00320069404000a5
:1010900080cf50000b003200d018210080bf9f008d
:1010a000ae0020000a003700c217210082bf9f0057
:1010b00006003700d318210083bf9f008e00200058
:1010c00003003700d418210084bf9f000e012000c8
:1010d0001c0278009c0290002c039000bc0390003e
:1010e0000605be000404be0040c6b30080cf500019
:1010f000030032006540400080cf50000b003a00f2
:10110000e00f5200e08f5a00e00f5b00e08f5b00c1
:1011100006003d006000b8006011b80004045000f3
:10112000858458000605590087855900e80f570047
:101130000400320040002000f00f57003c003a004d
:101140000100370030002000e00f5400e08f5c0009
:10115000e00f5d00e08f5d0004003a00dc089000c5
:101160008d0120000100e000070032008e00e90040
:10117000888060008fba970081804200914078009b
:10118000f1ef9f007d012000800078008100e900e0
:10119000050033008b05d1000a85d3008984d30074
:1011a0000884d300f9ff3700089ebe000a96be00ef
:1011b000130037008d06e9008e00e900848060008e
:1011c0000fb99700810041001141780083fd2f0085
:1011d0008d81410082f77900800178008301e90068
:1011e000050033008783d1000683d3008582d300b6
:1011f0000482d300f9ff3700049ebe000696be00ad
:101200001c0278009c0290002c039000bc0390000c
:10121000e00f5200e08f5a00e00f5b00e08f5b00b0
:10122000930034000d00e000e2ff3c009000370026
:101230002c60900081c6b300814f50000b0032003b
:1012400006003c000004e00008003200e6c0500048
:10125000814f500052003a0004003700c1c6b3006d
:10126000814f50004e003a00230037000800e00094
:1012700004003a005c0890008d0120000000e000ae
:1012800007003200110009000e84d8000fba970041
:101290000100420010407800f0ef9f007d01200027
:1012a000110009000e84d8000b003700110009005e
:1012b0000e04d8008d06e9008e81b90002045400a6
:1012c0008fb89700088440009841780082fd2f0075
:1012d0000d01410083777900000478000800e000e8
:1012e000020032000d00e000f0ff3c00cfc4de0041
:1012f000614db90027003700e00f5400e08f5c001b
:1013000004003a005c0890008d0120000000e0001d
:10131000080032006171b9000800be004a010700f0
:101320000fba97008000420091407800f1ef9f00d3
:101330007d0120006171b9000800be0034fd070086
:101340000c0037006171b9000800be0021fd0700e4
:101350008d06e90080f1b900020454008fba9700ad
:10136000088442009841780082fd2f000d01410061
:10137000837779000004be00e00f5000e08f580032
:10138000020032000d00e000eeff3c004fcdde0019
:101390008a057800089ebe000a96be003400370019
:1013a000e00f5400e08f5c00e00f5d00e08f5d0017
:1013b00004003a005c0890008d0120000000e0006d
:1013c0000a0032006172b900612bb9000800be004a
:1013d0000a01be00c10107000fba97008000420059
:1013e00091407800f1ef9f007d0120006172b9000b
:1013f000612bb9000800be000a01be00b001070061
:101400000e0037006172b900612bb9000800be0000
:101410000a01be00b50107008d06e90080f2b9009f
:10142000040454008fba9700088442009842780060
:1014300084fd2f000d02420085777a00009ebe00d9
:101440000296be001c0478009c0490002c059000bd
:10145000bc059000e00f5400e08f5c00e00f5d00e1
:10146000e08f5d00020034000d00e000e5ff3c006d
:10147000e80f570010003a000c1090000038a3004d
:101480000d003200f78f560006003e0080fd2f0051
:101490000d004000ef40780000c3b30080cf500043
:1014a0000500320002c3b30071fd2f008d804000a3
:1014b0008d06e90082f7780078811600120e9800f8
:1014c0006c00900083fd2f008f8141008d804100d2
:1014d000cffe07001c089000dc089000810f500030
:1014e00006003d0000805000000e98000c10900097
:1014f0000040a100001698000f0037000100e00036
:101500000d003d008c109000f4806000f08f5000c2
:1015100009003a007c099000fc0090008100510015
:101520000c09900082805000008050004240a900c9
:1015300001003400000e98004f0778004f06be00ef
:101540004f05be004f04be00cf01b10000000600f1
:101550000400fa00889fbe008a9fbe008c1f78009e
:101560000004780001067800f80d900078009000e3
:101570008085550008089000808555001808900067
:101580008085550028089000808555003808900017
:101590008085550048089000808555000002220093
:1015a00090bf9f0000032300a0bf9f000810900081
:1015b0000028a30015003a000b00e00013003400df
:1015c0000b0578008a047800e20f55000100360010
:1015d00029002000c801900009017800ee80570022
:1015e0005800900003000100500498000000e00043
:1015f0008c0032006808900009004000600c9800e0
:10160000090555004240a900eeff3c00780190001a
:101610000200e0000c003400c80190008c0078004b
:101620005800900003000100500498008080eb00f7
:101630000000e0007c003200e80890007800900094
:1016400000804000600c9800880c90000900e000c9
:101650001100340009057800e28f540001003600c3
:101660002a002000c80190000a017800ec80570091
:101670005800900003000100500498000000e000b2
:1016800068003200680890000a004000600c980072
:101690008a845400edff3700180990000200e00032
:1016a0000c003400c8019000e80090005800900041
:1016b00003000100500498008080eb000000e0006f
:1016c00059003200e808900018089000008040009f
:1016d000600c9800a80c90000900e0001100340094
:1016e00009057800e28f5400010036002a0020002e
:1016f000c80190000a017800ec8057005800900063
:1017000003000100500498000000e0004500320092
:10171000680890000a004000600c98008a84540019
:10172000edff3700380990000200e0000e003400a1
:10173000e80090001808900080804000c8019000e8
:101740005800900003000100500498008080eb00d6
:101750000000e00034003200e808900038089000f3
:1017600000804000600c9800c80c90000900e00068
:101770001100340009057800e28f540001003600a2
:101780002a002000c80190000a017800ec80570070
:101790005800900003000100500498000000e00091
:1017a00020003200680890000a004000600c980099
:1017b0008a845400edff3700081090008000eb0091
:1017c0000028a300180032000b00e00016003400cf
:1017d0008b04780009057800e28f54000100360080
:1017e0002a002000c80190000a017800ee8057000e
:1017f0005800900003000100500498000000e00031
:1018000008003200680890000a004000600c980050
:101810008a8454004240a900eeff3c008000eb00a7
:10182000010037008080eb00010078004f0678004f
:101830004f05be004f04be000080fa000000060005
:101840000108780000000600f1fb07000400be005c
:1018500000000600889fbe008a9fbe003004420040
:10186000b0844a0030054b0090854b006000b10009
:101870000898be000a90be000440e10005c8e100df
:1018800006d0e10007d8e100020031006800400006
:101890001008e8004f05be004f04be00000006001f
:1018a000889fbe008a9fbe001004780090049000bc
:1018b00020059000b00590000418540005985c00c5
:1018c00006185d0007985d00110020000440e1004b
:1018d00005c8e10006d0e10007d8e10001003900a9
:1018e0008000eb00108810004f05be004f04be00c2
:1018f000000006001200fa00889fbe008a9fbe000a
:101900008c9fbe00e0b79f00f1b79f0082bf9f0091
:1019100093bf9f000605be000404be000000eb005c
:10192000d0b79f00c0b79f00b0b79f00a0b79f007f
:1019300090b79f000006eb005fb19700cfb0970013
:10194000820141003fb097000200e00004003d002a
:10195000370007007e805700beff070003003700f6
:10196000330007007e805700cdff0700dfb69700e9
:101970000d00e0000c0035006fb29700ffb2970039
:101980000fbb97009fbb97001000200001002000b4
:101990006011b800000272008182720002037300bd
:1019a000838373001b0007000c06e800010420007d
:1019b000810f5600e0ff3a000d00e00004003d00fa
:1019c0000802be000a03be007e805700a1ff070088
:1019d0005fa897000000e00005003a001fb29700e2
:1019e000afb297003fb39700cfb39700090007004d
:1019f0006fb09700ffb097000fb997009fb997009d
:101a00004f06be004f05be004f04be000080fa0026
:101a1000000006000100070000000600a4b79f00b8
:101a2000b5b79f00c6b79f00d7b79f00000006005c
:101a30004f09de0082817100b3b79f004f01de00c5
:101a40008180400082807000a1b79f008fb0970016
:101a50004f09de00000040000200700090b79f00b8
:101a60007fa897004f01de008180400082807000d7
:101a700081b79f000d0007004f3ade0000004000d4
:101a800004007000f0af9f0008000700040242004d
:101a900085824a0006034b0087834b00dfff070067
:101aa0000802be000a03be00000006002fb2970025
:101ab000bfb297004fb39700dfb397000000060056
:101ac000881f780018002000881f780089ff070011
:101ad0008f87e9004f04780000000600801feb00ac
:101ae00084ff07008f87e90000000600889fbe0082
:101af0008a9fbe00e00f5000e08f5800e00f5900b1
:101b0000e08f59000c003d006044b8006055b800fb
:101b10000000540081805c0002015d0083815d0053
:101b2000180020001500070008003d0018000700fd
:101b30000004eb00050037000004eb000f00070075
:101b400002003d001200070018002000dcff070023
:101b50000800e000060032006022b8006033b800e0
:101b60000000520081805a0002015b0083815b000b
:101b70004f05be004f04be0000000600e00f5200fb
:101b8000e08f5a00e00f5b00e08f5b000000060072
:101b90006044b8006055b8000402540085825c00bf
:101ba00006035d0087835d0000000600889fbe007d
:101bb0008a9fbe008c1f7800e00f5000e08f580015
:101bc000e00f5900e08f59000d003d006044b8005f
:101bd0006055b8000000540081805c0002015d0087
:101be00083815d001c0020000820e10009a8e100bd
:101bf0000ab0e1000bb8e1000d003d00080037001d
:101c00000006eb00e00f5200e08f5a00e00f5b008f
:101c1000e08f5b0006003d006044b8006055b800ee
:101c20000402540085825c0006035d0087835d002a
:101c3000aaff07000c00e000060032006022b80096
:101c40006033b8000000520081805a0002015b003e
:101c500083815b004f0678004f05be004f04be0035
:041c6000000006007a
:020000040000fa
:101c640025350000642000002533000064200000b6
:081c74002535000064000000aa
:020000040000fa
:101c7c000000fa000060fe000080fa000000060080
:101c8c000800fa0010708000640060000000e000a2
:101c9c0046003200c0112100300798000040eb00d4
:101cac00204798003d0037000040eb00404798006b
:101cbc000040eb00304798002c0037000000eb0090
:101ccc00000f78000900370010c0b300813e2000df
:101cdc001e017800810f510001003e000040eb0016
:101cec001e0fe8000004e00032003a001070800083
:101cfc00700060000000e000f3ff32004e409000e6
:101d0c0000404000404798000000eb00000f7800b6
:101d1c000900370010c0b300813e20001e0178007e
:101d2c00810f510001003e000040eb001e0fe80047
:101d3c000004e00021003a00107080007000600088
:101d4c000000e000f3ff3a001070800000407800c3
:101d5c0061406000ce40900000c070004047980089
:101d6c003e4090000040e800304798003e40900014
:101d7c00e74f5000d1ff36003e009000ce4090005f
:101d8c00014878003e0090000000e8003007980001
:101d9c002e4090000040e800204798002e40900014
:101dac00e74f5000c0ff3600050037000000000070
:101dbc0003003700000000000100370000000000a5
:101dcc000080fa00000006000c00fa002010210030
:101ddc0030079800a010210040079800042ea8009e
:101dec00003d200001002000c30a0700042ea900ba
:101dfc000040eb0020479800520037003e00900056
:101e0c0090407800214f98003e0090000000e800c0
:101e1c00300798004e00900090407800314f9800a9
:101e2c004e0090000000e8004007980000c8b30086
:101e3c00404798000040eb00304798003b003700cb
:101e4c00046ea800ae4890004e40900000c06000a8
:101e5c000004e000020032001e00a0000200370067
:101e6c00e0ff2f001e0f6000be4890004e40900017
:101e7c0000c060000004e000020032001e10a00050
:101e8c0002003700d0ff2f001e0f6000211121002f
:101e9c00914078004e40900000c060000004e000cb
:101eac00020032001e40a00002003700f0fe2f009e
:101ebc001e0f60002e4090000080fb00e1006000cf
:101ecc003011210000804000904078004e4090007e
:101edc0000c060000004e000020032001e70a00090
:101eec0002003700f0f72f001e0f60009e007800f4
:101efc00c1708800b0082000010020007e0a070095
:101f0c004e4090000080fb000000d100404798003c
:101f1c00046ea900c015200001002000760a0700fd
:101f2c003e4090000040e800304798003e40900052
:101f3c00e74f5000c2ff36002e4090000040e800f2
:101f4c00204798002e409000e74f5000abff360022
:101f5c00180ea900182ea900188ea90018eea900b9
:101f6c000080fa00000006000000fa00201021009a
:101f7c0001fa2000010878002010210001e2240061
:101f8c00110098002010210001e22400210098008b
:101f9c002010210001fa200031009800a01021002f
:101fac0001e2240001087800a010210001fa2000b1
:101fbc0011009800a010210001e2240021009800db
:101fcc00a010210001fa2000310098007eff0700cc
:101fdc000080fa00000006005200fa00889fbe0044
:101fec008a9fbe008c9fbe00401f9800511f980016
:101ffc00621f98004e189000de18900032002000ee
:10200c0003002000f0f90700101f9800211f980012
:10201c004e199000de199000028fbe004e199000f0
:10202c00de19900022079800330798001e199000c3
:10203c00ae19900042079800530798001e199000a3
:10204c00ae19900062079800730798001e18900054
:10205c00ae18900060001000e0801800000f98008f
:10206c00110f98000e0990009e099000220f980005
:10207c00330f98004e189000de189000600010008e
:10208c00e0801800400f9800510f98004e09900006
:10209c00de099000620f9800730f980000802c00ee
:1020ac00210320001e0f40005e97480002002e0006
:1020bc00e30220004e009000de0090000000510072
:1020cc008180590040079800510798000e09900034
:1020dc009e09900000002e00e1022000020040004a
:1020ec0083804800000f9800110f980002c02e004a
:1020fc00c30220004e089000de0890000000510042
:10210c0081805900400f9800510f98006e09900083
:10211c00fe09900000002e00e102200002004000a9
:10212c0083804800600f9800710f980002802c008b
:10213c00230320002e089000be08900000005100e0
:10214c0081805900200f9800310f98006e0190008b
:10215c00fe01900000802f00a10220000200400030
:10216c0083804800600798007107980002002e00d9
:10217c00e30220002e009000be00900000005100f1
:10218c008180590020079800310798001e007800c4
:10219c009e009000e00f5000e08f580002003d00c0
:1021ac006000b800008fbe004e009000de00900072
:1021bc00e00f5000e08f580003003d006000b800b5
:1021cc0040079800510798000e0890009e08900058
:1021dc00e00f5000e08f580003003d006000b80095
:1021ec00000f9800110f98004e089000de08900028
:1021fc00e00f5000e08f580003003d006000b80075
:10220c00400f9800510f98006e089000fe08900047
:10221c00e00f5000e08f580003003d006000b80054
:10222c00600f9800710f98002e089000be08900067
:10223c00e00f5000e08f580003003d006000b80034
:10224c00200f9800310f98006e009000fe00900057
:10225c00e00f5000e08f580003003d006000b80014
:10226c0060079800710798002e009000be00900047
:10227c00e00f5000e08f580003003d006000b800f4
:10228c0020079800310798001e0078009e009000ef
:10229c00c809dd004804de0008847100c88cde002b
:1022ac00081798004e009000de009000c809dd0071
:1022bc004801de0002817100721f98004889de001f
:1022cc0002279800fe199000131798000e08900032
:1022dc009e089000c809dd004801de0002817100f3
:1022ec00122798004889de00222798009e21900032
:1022fc00231798004e089000de089000c809dd00f6
:10230c004801de0002817100322798004889de0006
:10231c0042279800be219000331798006e08900059
:10232c00fe089000c809dd004801de000281710042
:10233c00522798004889de0062279800de21900021
:10234c00431798002e089000be089000c809dd00c5
:10235c004801de0002817100722798004889de0076
:10236c00022f9800fe219000531798006e009000e9
:10237c00fe0090004809dd004806de000c067100e6
:10238c00c88ede006c1798002e009000be009000e6
:10239c00c809dd004805de000a857100c88dde0025
:1023ac007a1798006e1890000000e000710035005c
:1023bc008e10900000062f0000804000001f980037
:1023cc0001e224001e10900000805000301f980085
:1023dc00be1890000e189000808f50000200310043
:1023ec00be189000011f9800ae10900000062f0040
:1023fc0000804000301f9800be1890000e1890000e
:10240c00808f5000020031003e199000021f98008e
:10241c0001e224003e10900000805000301f980014
:10242c00be1890000e189000808f500002003100f2
:10243c00be199000031f980001e224004e1090007a
:10244c0000805000301f9800be1890000e189000ad
:10245c00808f500002003100be189000011f9800c0
:10246c00de10900000062f0000804000301f980006
:10247c00be1890000e189000808f500002003100a2
:10248c003e199000021f980001e224006e1090008b
:10249c0000805000301f9800be1890000e1890005d
:1024ac00808f500002003100be199000031f98006d
:1024bc00fe10900000062f0000804000301f980096
:1024cc00be1890000e189000808f50000200310052
:1024dc00be189000011f9800ee1890000e18900086
:1024ec00808f5000020036000e199000621f980079
:1024fc006e1890008e10900000805000001798000d
:10250c006e1890009e1090000080400010179800ec
:10251c006e189000ae1090000080500020179800ac
:10252c006e189000be10900000804000301798008c
:10253c006e189000ce10900000804000401798005c
:10254c006e189000de10900000805000501798001c
:10255c006e189000ee1090000080400060179800fc
:10256c006e189000fe1090000080500070179800bc
:10257c00730037006e1890000000ea00601f98008e
:10258c0001e224000e10900000805000001f980003
:10259c009e10900000062f0000804000301f980015
:1025ac00be1890000e189000808f50000200310071
:1025bc00be199000031f980001e224002e10900019
:1025cc0000805000301f9800be1890000e1890002c
:1025dc00808f500002003100be189000011f98003f
:1025ec00be10900000062f0000804000301f9800a5
:1025fc00be1890000e189000808f50000200310021
:10260c003e199000021f9800ce10900000062f007b
:10261c0000804000301f9800be1890000e189000eb
:10262c00808f500002003100be199000031f9800eb
:10263c0001e224005e10900000805000301f9800d2
:10264c00be1890000e189000808f500002003100d0
:10265c00be189000011f9800ee10900000062f008d
:10266c0000804000301f9800be1890000e1890009b
:10267c00808f5000020031003e199000021f98001c
:10268c0001e224007e10900000805000301f980062
:10269c00be1890000e189000808f50000200310080
:1026ac00be199000031f9800ee1890000e189000b1
:1026bc00808f5000020036008e189000611f980029
:1026cc006e1890008e10900000804000001798004b
:1026dc006e1890009e10900000805000101798000b
:1026ec006e189000ae1090000080400020179800eb
:1026fc006e189000be1090000080500030179800ab
:10270c006e189000ce10900000805000401798007a
:10271c006e189000de10900000804000501798005a
:10272c006e189000ee10900000805000601798001a
:10273c006e189000fe1090000080400070179800fa
:10274c00201021002e11900002087800201021008a
:10275c00be1190001300980020102100de10900094
:10276c0021009800201021004e119000320098009a
:10277c00a0102100fe11900003087800a010210089
:10278c00ee10900011009800a01021001e11900076
:10279c0022009800a01021008e11900033009800a8
:1027ac0089fd07004f06be004f05be004f04be005a
:1027bc000080fa00000006000000fa000001eb00a7
:1027cc006000b80004fe07000080fa00000006005c
:1027dc000800fa00889fbe002e08070060e4200065
:1027ec000f080700d6030700e5030700f2ff0700f8
:1027fc001ffd070040ba2700a10620003e08070075
:10280c001bfd070080c0b30028070700030037003a
:10281c008c030700ca030700d903070060c0b3008c
:10282c00f00007000000e000f9ff3a000000eb00a8
:10283c00000f78001f71ef001fd1bf001ef1b70011
:10284c001ed1bf001df1b7001dd1bf001cf1b70098
:10285c0000c8b30023f1b70023d1bf0022f1b700a9
:10286c0022d1bf0021f1b70021d1bf0020f1b70068
:10287c0000c8b30014f1b70014d1bf0013f1b700b6
:10288c0013d1bf0012f1b700f9fc070020d1bf0033
:10289c0013f1b70013d1bf0012f1b70022d1bf0062
:1028ac0014f1b700311221009140780021479800b3
:1028bc00ae40900000c8b30080cf50001900360025
:1028cc002e4090000080fb000008b100800040000a
:1028dc000000210000804000100078006101b80069
:1028ec00c0888000d18880000200400083804800ae
:1028fc00c0888800d1888800c2888000d388800076
:10290c000000270071012000800f5100818f5900b9
:10291c00040034000000270071012000c0888800ea
:10292c00d18888002e4090000004e0001a00350089
:10293c00c2888000d38880002e4090000080fb006d
:10294c0001082000008050008000400000002100a1
:10295c0000804000100078008000eb000000510067
:10296c0081805900c0888800d1888800c288800086
:10297c00d38880000000290081fe2f00800f5100b9
:10298c00818f590004003d000000290081fe2f00ba
:10299c00c0888800d18888001cd1bf000080fb0053
:1029ac006c0060000000e000070032001dd1bf0089
:1029bc000080fb006c0060000000e00002003200b0
:1029cc0069fd0700370037001dd1bf000080fb00f8
:1029dc00630060000000e0000200320076ff070098
:1029ec003000370080c0b300880107002007980032
:1029fc00310798002e019000be019000f06729006d
:102a0c0081092000800f5100818f590004003a0089
:102a1c000c0307004a030700590307002100370085
:102a2c002e009000be0090004609dd004a04de0036
:102a3c0008047100ca8cde0028079800390798003a
:102a4c00ae009000b088800000804000b088880004
:102a5c00b2888000c0888000d18880005efd0700ad
:102a6c0000c8b300820607002e0190007ad1bf0087
:102a7c008080fb001e0078001e0fe800821f78008b
:102a8c00811f7800801f780020e32800801f7800c9
:102a9c000013210078f70700e88757000013210086
:102aac004906070080092100110020009207070049
:102abc0075ff37000200fa00004f780011479800ac
:102acc00e00107000000e0000200320010002000ce
:102adc0022003700a0c3b300270207000000e0006b
:102aec0002003200100020001c0037007f0207009b
:102afc00e24f500002003a0010002000170037008f
:102b0c001e4078001c0207000000e00002003200aa
:102b1c00100020001100370074020700e24f500033
:102b2c0002003a00100020000c0037001e409000fc
:102b3c00110207000000e00002003200100020002b
:102b4c000600370069020700e24f500002003a000d
:102b5c001000200001003700ef0107000080fa0090
:102b6c00000006000200fa00004f7800b5010700d3
:102b7c000000e000020032001000200017003700b7
:102b8c00a0c3b300fc0107000000e000020032000b
:102b9c00100020001100370054020700e24f5000d3
:102bac0002003a00100020000c0037001e40780094
:102bbc00f10107000000e0000200320010002000cc
:102bcc000600370049020700e24f500002003a00ad
:102bdc0010002000010037000000eb000080fa001c
:102bec00000006000200fa00004f78009e407800ba
:102bfc0080c2b300afff07000000e000020032000b
:102c0c0010002000030037008040eb00d0c2b3005e
:102c1c00a8ff07000080fa00000006000600fa007a
:102c2c00200798002e009000f400b900000f7800e7
:102c3c00d0252a009e007800808f50000a003e00ac
:102c4c00702b2a001e0f50009e00780050a8250003
:102c5c000008b8004608de00000f78001e0078005f
:102c6c00004078000b003700d0df25001e0f40001d
:102c7c009e00780050a825000008b8004608de0029
:102c8c00000f78001e007800204798002e4090001e
:102c9c000040ea000080fa00000006000400fa0080
:102cac00889fbe008a9fbe008c9fbe0010079800b4
:102cbc0080c0b300abff07000000e0000200320050
:102ccc0010002000cc0037007b0107000000e00062
:102cdc000200320010002000c7003700b0c3b30060
:102cec00a50107000000e0000200320010002000e7
:102cfc00c1003700fd010700e24f500002003a000e
:102d0c0010002000bc003700d6010700000f78002f
:102d1c00001020009e007800808f500002003a00c6
:102d2c0010002000b40037001e00780080407800ae
:102d3c001e00900031409800100207000000e000d7
:102d4c000200320010002000ab003700c501070064
:102d5c00000f7800001020009e007800808f50003b
:102d6c0002003a0010002000a30037001e0078007b
:102d7c00804078001e00900021409800ff01070061
:102d8c000000e00002003200100020009a00370022
:102d9c00b4010700000f7800001020009e0078009e
:102dac00808f500002003a00100020009200370083
:102dbc001e007800804078001e00900011409800a2
:102dcc00ee0107000000e0000200320010002000bd
:102ddc00890037001e0090009000900010007800d1
:102dec004409dd004c06de000c067100cc8ede00c2
:102dfc001e0090000c88be009a010700000f78009e
:102e0c00001020009e007800808f500002003a00d5
:102e1c0010002000780037001e00780080407800f9
:102e2c001e00900071409800d40107000000e000e3
:102e3c0002003200100020006f00370089010700eb
:102e4c00000f7800001020009e007800808f50004a
:102e5c0002003a0010002000670037001e007800c6
:102e6c00804078001e00900061409800c30107006c
:102e7c000000e00002003200100020005e0037006d
:102e8c0078010700000f7800001020009e007800e9
:102e9c00808f500002003a001000200056003700ce
:102eac001e007800804078001e0090005140980071
:102ebc00b20107000000e000020032001000200008
:102ecc004d0037001e009000b000900020009000d4
:102edc004409dd004c05de000a057100cc8dde00d6
:102eec001e0090002a0098003b0098005d0107002e
:102efc00000f7800001020009e007800808f50009a
:102f0c0002003a00100020003b0037001e00780041
:102f1c00804078001e00900031489800970107000f
:102f2c000000e000020032001000200032003700e8
:102f3c004c010700000f7800001020009e00780064
:102f4c00808f500002003a00100020002a00370049
:102f5c001e007800804078001e00900021489800e8
:102f6c00860107000000e000020032001000200083
:102f7c00210037003b010700000f780000102000f3
:102f8c009e007800808f500002003a001000200054
:102f9c00190037001e007800804078001e00900059
:102fac00114898008e0107000000e000020032007a
:102fbc001000200010003700d70007000000e000d0
:102fcc0002003200100020000b0037001e009000a1
:102fdc00d0009000400090004409dd004c04de005d
:102fec0008047100cc8cde001e0090004800980094
:102ffc00590098000000eb004f06be004f05be00c4
:10300c004f04be000080fa00000006000800fa0021
:10301c00889fbe00604798006e409000d1fe07006c
:10302c000000e00003003200f06729008109200055
:10303c0059003700a00007000000e0000300320038
:10304c00f06729008109200053003700b0c3b3009a
:10305c00c90007000000e00003003200f0672900ff
:10306c00810920004c00370020010700e24f50007e
:10307c0003003a00f0672900810920004600370060
:10308c00f8000700000f7800001020009e00780068
:10309c00808f500003003a00f0672900810920005e
:1030ac003d0037001e007800004078005047980023
:1030bc00320107000000e00003003200f067290035
:1030cc008109200034003700e6000700000f78006b
:1030dc00001020009e007800808f500003003a0002
:1030ec00f0672900810920002b0037001e007800b2
:1030fc000040780040479800200107000000e000e5
:10310c0003003200f06729008109200022003700fb
:10311c00d4000700000f7800001020009e007800fb
:10312c00808f500003003a00f067290081092000cd
:10313c00190037001e0078000040780030479800d6
:10314c00270107000000e00003003200f0672900af
:10315c0081092000100037006f0007000000e0001c
:10316c0003003200f0672900810920000a003700b3
:10317c001e009000ae0090004409dd004c04de00ff
:10318c0008047100cc8cde00180798002907980001
:10319c001e009000ae0090004f04be000080fa00ac
:1031ac00000006000200fa000000eb00000f78009f
:1031bc000d0037001e0fe800703821009e007800cb
:1031cc00808f5000050036001e0107005c010700cf
:1031dc006b0107001000200018003700500420007d
:1031ec0001002000c4050700001080006100600091
:1031fc000000e000efff3a00001080006400600067
:10320c000000e000ebff3a00001080006800600056
:10321c000000e000e7ff3a00001080006200600050
:10322c000000e000e3ff3a00001080007000600036
:10323c000000e000dfff3a000000eb000080fa0025
:10324c00000006000200fa000000eb00000f7800fe
:10325c00d4ff07000000e000020032001000200044
:10326c0013003700580107000000eb00000f780036
:10327c000a00370000108000610060000000e000d0
:10328c0002003a000000eb00090037005004200057
:10329c0001002000980507001e0fe800b012200066
:1032ac009e007800808f5000f2ff36001000200046
:1032bc000080fa00000006000200fa000000eb009b
:1032cc00000f7800440107000000eb00000f7800ad
:1032dc000a00370000108000620060000000e0006f
:1032ec0002003a000000eb000900370050042000f7
:1032fc0001002000800507001e0fe800b01220001e
:10330c009e007800808f5000f2ff360010002000e5
:10331c000080fa00000006000200fa000000eb003a
:10332c00000f7800300107000000eb00000f780060
:10333c000a00370000108000640060000000e0000c
:10334c0002003a000000eb00090037005004200096
:10335c0001002000680507001e0fe800b0122000d5
:10336c009e007800808f5000f2ff36001000200085
:10337c000080fa00000006000400fa0020479800c4
:10338c000000eb00000f78000000eb00000f78004d
:10339c000c00370004e2a9002e4090002b0107001e
:1033ac002110800000082000008060000000e00078
:1033bc000900320050042000010020004e050700d7
:1033cc001e0fe800b01220009e007800808f500085
:1033dc00f0ff36000100370000000000b0122000a2
:1033ec009e007800808f500003003600fe0007001e
:1033fc0010002000190037000000eb00000f7800cf
:10340c000800370020108000610060000000e00020
:10341c0009003a0050042000010020003605070086
:10342c001e0fe800b01220009e007800808f500024
:10343c00f4ff36000100370000000000b01220003d
:10344c009e007800808f500003003600e6000700d5
:10345c0010002000010037000000eb000080fa0093
:10346c00000006000400fa000000eb00000f7800da
:10347c00ed0007000000eb00000f7800080037009b
:10348c0020108000620060000000e00009003a009b
:10349c005004200001002000170507001e0fe80053
:1034ac00703821009e007800808f5000f4ff3600a9
:1034bc000100370000000000703821009e007800e9
:1034cc00808f500003003600c7000700001020005a
:1034dc0004003700d8000700204798002e409000c9
:1034ec000080fb000080fa00000006000200fa00d9
:1034fc000000eb00000f78000000eb00000f7800dc
:10350c0009003700211080000000240000806000ba
:10351c000000e000090032005004200001002000ef
:10352c00f50407001e0fe800b01220009e00780082
:10353c00808f5000f3ff36000100370000000000c0
:10354c00b01220009e007800808f500003003600df
:10355c00a500070020c0b30006003700a600070036
:10356c000004e0000200320010c0b300010037007c
:10357c000040eb000080fa00000006000200fa0098
:10358c000000eb00000f7800b60007000000eb0015
:10359c00000f78000a0037000010800070006000f7
:1035ac000000e00002003a000000eb000a003700c7
:1035bc005004200001002000cf0407001e0fe8007b
:1035cc00b01220009e007800808f5000f2ff360071
:1035dc0085000700100020000080fa0000000600a3
:1035ec000200fa000000eb00000f7800a2000700b8
:1035fc000000eb00000f78000a003700001080007c
:10360c00700060000000e00002003a000000eb00d7
:10361c000a0037005004200001002000b604070007
:10362c001e0fe800b01220009e007800808f500022
:10363c00f2ff36006c000700100020000080fa003a
:10364c00000006000000fa0001e2a9000080fa0068
:10365c00000006000000fa002228a9002208a90098
:10366c000080fa00000006000000fa001041800003
:10367c00620060000000e00004003a00104180008d
:10368c00610060000000e000020032001000200029
:10369c00010037000000eb00004078000080fa00c9
:1036ac00000006000000fa002228a9002208a90048
:1036bc000080fa00000006000000fa000228a900b1
:1036cc000208a9000080fa00000006000000fa00c1
:1036dc000228a8000208a8000080fa0000000600da
:1036ec000200fa00000f78001040800062006000b9
:1036fc000000e00010003a00104080006100600003
:10370c000000e0000c003a001040800062006000f5
:10371c000000e00008003a001040800061006000ea
:10372c000000e00004003a0020b421000100200059
:10373c0071040700f4ff37000080fa000000060057
:10374c000000fa00011080000000280000806000da
:10375c000000e00007003a000422ef0000002800ff
:10376c0000108800b01520005010880010c0b30065
:10377c00010037000040eb000080fa00000006005a
:10378c000000fa000110800000002800008060009a
:10379c000000e00006003a000222a8000202a80085
:1037ac0000c2a80001e2a80010c0b300010037005d
:1037bc000040eb000080fa00000006000000fa0058
:1037cc000080fa00000006000000fa000002a800c9
:1037dc000080fa00000006000000fa000022a80099
:1037ec000080fa00000006000000fa000042a80069
:1037fc000080fa00000006000000fa002010800093
:10380c004f00de00004078000080fb0000f0a700b5
:10381c000000ea000000ea004f00de0000407800e3
:10382c000080fa00000006000000fa000062a80008
:10383c000080fa00000006000000fa007010800002
:10384c00004078000080fa00000006000200fa0038
:10385c00004f78001e80fb00601088000080fa008a
:10386c00000006000000fa0000a2a9000082a800d7
:10387c000080fa00000006000000fa0000a2a80078
:10388c000082a8000080fa00000006000000fa0088
:10389c000182a8000080fa00000006000000fa0077
:1038ac0020108000620060000000e00004003a007c
:1038bc0020108000610060000000e0000200320077
:1038cc0010002000010037000000eb0000407800e1
:1038dc000080fa00000006000000fa0020108000b2
:1038ec004300de00614060000080fb0000f0a70098
:1038fc000000ea000000ea004f00de000040780003
:10390c000080fa00000006000000fa002110800080
:10391c00000220000080600000f0a7000000ea0018
:10392c000000e9004f00de00004078000080fa0043
:10393c00000006000000fa00201080004400de00a9
:10394c00614060000080fb0000f0a7000000ea006e
:10395c000000ea004f00de00004078000080fa0012
:10396c00000006000000fa00201080004500de0078
:10397c00614060000080fb0000f0a7000000ea003e
:10398c000000ea004f00de00004078000080fa00e2
:10399c00000006000000fa00201080004200de004b
:1039ac00614060000080fb0000f0a7000000ea000e
:1039bc000000ea004f00de00004078000080fa00b2
:1039cc00000006000000fa000542a9000080fa0081
:1039dc00000006000000fa0002a2a8000080fa0015
:1039ec00000006000000fa0002a2a9000080fa0004
:1039fc00000006000000fa0002c2a8000080fa00d5
:103a0c00000006000000fa0002c2a9000080fa00c3
:103a1c00000006000200fa00000f78009e007800fb
:103a2c00818b88000080fa00000006000200fa007a
:103a3c00000f78009e007800918b88000080fa00bf
:103a4c00000006000200fa00000f78009e007800cb
:103a5c00a18b88000080fa00000006000000fa002c
:103a6c00008820001013880010002000201388000c
:103a7c00c0002800001388000080fa000000060037
:103a8c000400fa00000f78001107980000000000f5
:103a9c0000138000620060000000e000fcff3a00b0
:103aac001e007800104078000080fb004013880056
:103abc000000000001138000000220000080600064
:103acc000000e000fbff3a004013800080407800cb
:103adc001e009000014878000080fa0000000600eb
:103aec001800fa00100f9800210f9800320f980060
:103afc000000eb00000f78000000eb0010079800ae
:103b0c000000eb00700798000000eb00000f98001d
:103b1c0010002000600798001e0890000000e000d4
:103b2c0005003a000000eb005007980070004700b9
:103b3c002007980004003700ee0090005107980011
:103b4c009e089000210798003e0890000000e000bd
:103b5c0005003a000000eb00400798006e0047009b
:103b6c003007980005003700ee00900041079800e0
:103b7c00be08900031079800000000000013800080
:103b8c00620060000000e000fcff3a001d003700fe
:103b9c0000138000620060000000e00009003a00a1
:103bac002e009000104078000080fb00401388002d
:103bbc00ae0090005e00900000804000200798004e
:103bcc001e0fe8000113800000022000008060003e
:103bdc000000e0000b003a004013800080407800a9
:103bec003e00900001487800be0090004e0090000e
:103bfc0000804000300798001e0090000000e80094
:103c0c00100798002e0890009e007800808f5000be
:103c1c00dfff390010003700011380000002200084
:103c2c00008060000000e0000b003a0040138000b0
:103c3c00804078003e00900001487800be00900063
:103c4c004e00900000804000300798001e0090004d
:103c5c000000e800100798009e0090002e089000cd
:103c6c00808f5000ecff39001e0078000080fa00b5
:103c7c00000006000400fa00204798000e80e800bf
:103c8c008e0078007eff07001e4078000080fa004e
:103c9c00000006000600fa00000f780011079800db
:103cac00220798002e0190009e0090001e007800c4
:103cbc008bff07000080fa00000006000000fa00ed
:103ccc001113800000402000008060000000e00024
:103cdc0002003a000000eb00010037001000200049
:103cec000080fa00000006000000fa0000138000bb
:103cfc000080fa00000006000000fa00022cef0021
:103d0c000090210020608800062cef000a2cef00a8
:103d1c001a2cef001e2cef00000820000061880018
:103d2c000008200000628800000820000063880062
:103d3c00000c2b00e3c1200011322400d2bc2a005d
:103d4c00820978008109780010618800000c2b0032
:103d5c00e3c1200011322400d2bc2a008209780071
:103d6c008109780010628800000c2b00e3c1200050
:103d7c0011322400d2bc2a00820978008109780013
:103d8c0010638800b00f2000e3c120001132240022
:103d9c00d2bc2a0082097800810978002061880051
:103dac00b00f2000e3c1200011322400d2bc2a0045
:103dbc00820978008109780020628800b00f200009
:103dcc00e3c1200011322400d2bc2a008209780001
:103ddc008109780020638800262cef00462cef0028
:103dec00662cef00282cef00482cef00682cef001d
:103dfc004006200050618800400620005062880078
:103e0c0040062000506388002c2cef004c2cef0057
:103e1c006c2cef00322cef00522cef00722cef00c8
:103e2c00342cef00542cef00742cef00382cef00e6
:103e3c00582cef00782cef003a2cef005a2cef00a6
:103e4c007a2cef003c2cef005c2cef007c2cef006c
:103e5c003e2cef005e2cef007e2cef0000002800c3
:103e6c00006088000080fa00000006000000fa00e4
:103e7c000080fa00000006000000fa0031408000cb
:103e8c0000202000008060000000e00002003200f2
:103e9c00f6ff07000728a9000080fa0000000600c2
:103eac000000fa000080fa00000006000000fa0092
:103ebc003140800000202000008060000000e00005
:103ecc0002003200f6ff07000bc8a9000080fa00c0
:103edc00000006000000fa000080fa000000060056
:103eec000000fa00314080000020200000806000bb
:103efc000000e00002003200f6ff07000be8a9000a
:103f0c000080fa00000006000000fa000080fa00b1
:103f1c00000006000000fa00314080000020200064
:103f2c00008060000000e00002003200f6ff070095
:103f3c000c08a9000080fa00000006000000fa003e
:103f4c00003a80000080fa00000006000200fa002f
:103f5c00faff0700000f78001e007800240007000d
:103f6c000004e0000200320000002800710007008d
:103f7c001e0078002a0007000004e0000200320056
:103f8c00000024006b0007001e00780032000700c0
:103f9c000004e00002003200002020006500070051
:103fac001e0078003a0007000004e0000200320016
:103fbc00000820005f0007001e0078004200070088
:103fcc000004e00002003200000420005900070049
:103fdc001e0078004a0007000004e00002003200d6
:103fec0000012000530007000080fa0000000600ca
:103ffc000400fa00100798000040eb00004f780016
:10400c001e0090000000e00002003d0010c0b30054
:10401c00004f78001e4078000080fa000000060077
:10402c000400fa00100798000040eb00004f7800e5
:10403c009e00900000002400008060000000e00062
:10404c000200320010c0b300004f78001e40780010
:10405c000080fa00000006000400fa001007980027
:10406c000040eb00004f78009e00900000202000e4
:10407c00008060000000e0000200320010c0b300bd
:10408c00004f78001e4078000080fa000000060007
:10409c000400fa00100798000040eb00004f780075
:1040ac009e00900000082000008060000000e000ee
:1040bc000200320010c0b300004f78001e407800a0
:1040cc000080fa00000006000400fa0010079800b7
:1040dc000040eb00004f78009e0090000004200090
:1040ec00008060000000e0000200320010c0b3004d
:1040fc00004f78001e4078000080fa000000060097
:10410c000400fa00100798000040eb00004f780004
:10411c001e009000700060000000e0000200320001
:10412c0010c0b300004f78001e4078000080fa00e9
:10413c00000006000200fa00000f78009e80ea00e2
:10414c00003a800000806000003a88000080fa008d
:10415c00000006000000fa004027ef000080fa0083
:04416c000000060049
:020000040000fa
:10417000761100000200000082000000ffff000036
:1041800050110000200000008000000078110000a5
:104190000200000080000000701100000600000016
:1041a00080000000001000000201000082000000fa
:1041b000140015000016000016001700001800007b
:1041c00019001a00001b00001c001d00001e00004a
:1041d000200021000022000023002500002600000e
:1041e00028002900002b00002d002e0000300000c8
:1041f000320034000036000038003a00003d000074
:104200003f0041000044000047004900004c00000e
:104210004f0052000055000059005c000060000093
:1042200064006700006b00007000740000780000fc
:104230007d008200008700008c0092000097000043
:104240009d00a30000aa0000b000b70000be00005f
:10425000c600ce0000d60000de00e70000f000003f
:10426000f9000300010d010017012200012d0100da
:1042700039014500015201005f016d00017b010021
:104280008a01990001a90100b901cb0001dc0100fc
:10429000ef010200021602002b0241000257020049
:1042a0006f02870002a00200ba02d50002f20200eb
:1042b0000f032d00034d03006e03900003b40300b1
:1042c000d903ff000327040050047b0004a8040066
:1042d000d6040600053905006d05a30005db0500c1
:1042e0001506520006910600d2061600075d07006b
:1042f000a607f300074208009408ea0008420900f4
:104300009f09ff0009ff0900021100004e00000094
:10431000800000007a110000020000008000000010
:104320009e1100001a00000082000000686a6c0004
:10433000747a4c0000000100000200000400080034
:1043400000100000000020002b2d23003000000092
:104350007c11000022000000820000003031320099
:104360003334350036373800394142004344450084
:1043700046003000313233003435360037383900ea
:1043800061626300646566000000000000000000d8
:020000040000fa
:104390000200fa00004f780010c0b3003700070099
:1043a00080092100110020005601070000c8b30059
:1043b0009e40780080cf5000030032001e407800fd
:1043c0002e00070001003700000000000080fa0006
:1043d000000006000600fa00200798009cfb07007a
:1043e000c0c7b300e7fb070043fc07002e009000a6
:1043f00017f107002047980010c0b300104798003d
:104400001700370000ccb300004f78009e409000aa
:104410002e40900080cf500002003a0000c4b3004c
:10442000004f78001e407800d6fb070032fc0700e2
:104430002e00900010407800004f78002e00900071
:104440000000e800200798001e407800cdfb070020
:1044500029fc07001e4090000040e800104798002b
:104460009e4090002e40900080cf5000e5ff340029
:10447000acfb07000080fa00000006000200fa0012
:10448000004f780072fb0700c0c7b300bdfb0700f8
:1044900019fc07000040eb00bafb070016fc070000
:1044a0001e407800b7fb070013fc07009dfb0700c8
:1044b0000080fa00000006000200fa00004f7800b9
:1044c000b07d2900a10220000e01070080c3b300c7
:1044d000eaff0700d0822000010020000901070048
:1044e00090c3b300e5ff0700d08220000100200048
:1044f0000401070040c1b300e0ff0700d0822000a4
:1045000001002000ff0007009e4078006fc060009f
:104510000047b000d9ff0700d08220000100200032
:10452000f80007001e80fb004400de000040780019
:104530004045b000d1ff0700d082200001002000dc
:10454000f0000700c0c6b300ccff070090742f0036
:10455000410d2000eb00070080c3b300c7ff070038
:10456000d082200001002000e6000700c0c0b30098
:10457000c2ff0700d082200001002000e1000700f8
:1045800010c0b300bdff070010132200210020005f
:10459000dc0007000080fa00000006000000fa00be
:1045a0000081240000588800100220001058880064
:1045b000062bef0000002100205888000a2bef0096
:1045c000082bef000c2bef000e2bef000088a9004a
:1045d0000001240080588800122bef00162bef00fa
:1045e00000002100a05888001a2bef00182bef00c4
:1045f0001c2bef001e2bef0001c8a900202bef00a1
:10460000222bef00262bef0000002100205988000c
:104610002a2bef00282bef002c2bef002e2bef0086
:104620000308a900302bef00322bef00362bef00f0
:1046300000002100a05988003a2bef00382bef0032
:104640003c2bef003e2bef000488a90001eba800f3
:104650000080fa00000006000000fa000080fa0066
:10466000000006000000fa000040800070006000ba
:104670000000e00002003200f7ff07000088a900f8
:104680000080fa00000006000000fa000080fa0036
:10469000000006000000fa00014080000000240035
:1046a000008060000000e00002003200f6ff07001a
:1046b00001c8a9000080fa00000006000000fa000e
:1046c0000080fa00000006000000fa00114080009f
:1046d00000102000008060000000e00002003200b6
:1046e000f6ff07000308a9000080fa00000006009a
:1046f0000000fa000080fa00000006000000fa0046
:1047000020408000700060000000e00002003200e5
:10471000f7ff07000488a9000080fa0000000600e7
:104720000000fa0000202300203a88004827ef000c
:104730004e27ef00d0122000303a88006027ef00ab
:104740006227ef006427ef006627ef006a27ef007b
:104750006c27ef006e27ef0012002000800720007a
:10476000a109200033742000804978008149780035
:1047700082497800120020006004200071052000aa
:1047800023742000804978008149780082497800ac
:1047900000000000103a8000610060000000e000ae
:1047a000fcff3a0000000000113a800000022000e7
:1047b000008060000000e000fbff32000080fa0093
:1047c000000006000000fa00042eef00182eef0093
:1047d0005001200000708800c0f62f00a0708800f3
:1047e0000c2eef00202eef000a2eef0000f02f001d
:1047f000f0708800062eef001a2eef000e2eef004c
:10480000222eef00084ea8000041220007000700fa
:104810000268a9002268a8000080fa0000000600d3
:104820000000fa000080fa00000006000200fa0012
:10483000000f78002268a9009e007800c18b8800d4
:104840002268a8000080fa00000006000200fa00ba
:10485000000f78001e007800f4ff07000080fa00c7
:10486000000006000200fa00000f7800210280001c
:10487000200f2000008060001e00700020028800d1
:104880000080fa00000006000000fa00c3e8a8005b
:1048900000000000000000000080fa000000060098
:1048a0000000fa00c7ff07002f0007009cff070069
:1048b000f5ff070000022000eaff07000080fa0071
:1048c000000006000000fa0095ff07000080fa00d3
:1048d000000006000000fa00003a80000080fa00a4
:1048e000000006000000fa009bfd07000080fa00af
:1048f000000006000000fa0019fe07000080fa0020
:0449000000000600ad
:020000040000fa
:10490400f03fb1000180b10006003500ee0309005c
:1049140000000000403fb1000180b100fbff3d00fa
:104924001000b000203fb0000200350000800900f4
:08493400000000000000060075
:020000040000fa
:10493c00000f78009e007800b18b8800ffff3700d5
:10494c000000fa0000152100800778008016210075
:10495c00000188000080fa00000006000000fa0048
:10496c004142800000002700010070004042880096
:08497c000080fa0000000600b3
:020000040000fa
:04af0000ffff00004f
:020000040000fa
:04af2000ffff00002f
:020000040000fa
:04af3000f8ff000026
:020000040000fa
:04af38007bff00009b
:020000040000fa
:04af4000e8ff000026
:020000040000fa
:04af4800ffff000007
:020000040000fa
:04af5000ffff0000ff
:020000040000fa
:04af580000000000f5
:020000040000fa
:04af600000000000ed
:020000040000fa
:04af680000000000e5
:020000040000fa
:04af700000000000dd
:020000040000fa
:04af7800feff0000d8
:020000040000fa
:04af8000ffff0000cf
:020000040000fa
:04af8800ffff0000c7
:00000001FF
