:020000040000fa
:080000000002040000000000f2
:020000040000fa
:0400080006030000eb
:020000040000fa
:04000c0018030000d5
:020000040000fa
:0400100030030000b9
:020000040000fa
:040014000e030000d7
:020000040000fa
:0400180020030000c1
:020000040000fa
:04001c0028030000b5
:020000040000fa
:0400200038030000a1
:020000040000fa
:040024002a060000a8
:020000040000fa
:040028002a060000a4
:020000040000fa
:04002c002a060000a0
:020000040000fa
:040030002a0600009c
:020000040000fa
:040034002a06000098
:020000040000fa
:040038002a06000094
:020000040000fa
:04003c002a06000090
:020000040000fa
:040040002a0600008c
:020000040000fa
:040044002a06000088
:020000040000fa
:04004800fa050000b5
:020000040000fa
:04004c002a06000080
:020000040000fa
:040050002a0600007c
:020000040000fa
:040054002a06000078
:020000040000fa
:040058002a06000074
:020000040000fa
:04005c002a06000070
:020000040000fa
:040060002a0600006c
:020000040000fa
:040064002a06000068
:020000040000fa
:040068002a06000064
:020000040000fa
:04006c00a8030000e5
:020000040000fa
:040070002a0600005c
:020000040000fa
:040074007a0300000b
:020000040000fa
:040078002a06000054
:020000040000fa
:04007c002a06000050
:020000040000fa
:040080002a0600004c
:020000040000fa
:040084002a06000048
:020000040000fa
:040088002a06000044
:020000040000fa
:04008c002a06000040
:020000040000fa
:040090002a0600003c
:020000040000fa
:040094002a06000038
:020000040000fa
:040098002a06000034
:020000040000fa
:04009c002a06000030
:020000040000fa
:0400a0002a0600002c
:020000040000fa
:0400a4002a06000028
:020000040000fa
:0400a8002a06000024
:020000040000fa
:0400ac002a06000020
:020000040000fa
:0400b0002a0600001c
:020000040000fa
:0400b4002a06000018
:020000040000fa
:0400b8002a06000014
:020000040000fa
:0400bc002a06000010
:020000040000fa
:0400c0002a0600000c
:020000040000fa
:0400c4002a06000008
:020000040000fa
:0400c8002a06000004
:020000040000fa
:0400cc002a06000000
:020000040000fa
:0400d0002a060000fc
:020000040000fa
:0400d4002a060000f8
:020000040000fa
:0400d8002a060000f4
:020000040000fa
:0400dc002a060000f0
:020000040000fa
:0400e0002a060000ec
:020000040000fa
:0400e4002a060000e8
:020000040000fa
:0400e8002a060000e4
:020000040000fa
:0400ec002a060000e0
:020000040000fa
:0400f0002a060000dc
:020000040000fa
:0400f4002a060000d8
:020000040000fa
:0400f8002a060000d4
:020000040000fa
:0400fc002a060000d0
:020000040000fa
:040100002a060000cb
:020000040000fa
:040104002a060000c7
:020000040000fa
:040108002a060000c3
:020000040000fa
:04010c002a060000bf
:020000040000fa
:040110002a060000bb
:020000040000fa
:040114002a060000b7
:020000040000fa
:040118002a060000b3
:020000040000fa
:04011c002a060000af
:020000040000fa
:040120002a060000ab
:020000040000fa
:040124002a060000a7
:020000040000fa
:040128002a060000a3
:020000040000fa
:04012c002a0600009f
:020000040000fa
:040130002a0600009b
:020000040000fa
:040134002a06000097
:020000040000fa
:040138002a06000093
:020000040000fa
:04013c002a0600008f
:020000040000fa
:040140002a0600008b
:020000040000fa
:040144002a06000087
:020000040000fa
:040148002a06000083
:020000040000fa
:04014c002a0600007f
:020000040000fa
:040150002a0600007b
:020000040000fa
:040154002a06000077
:020000040000fa
:040158002a06000073
:020000040000fa
:04015c002a0600006f
:020000040000fa
:040160002a0600006b
:020000040000fa
:040164002a06000067
:020000040000fa
:040168002a06000063
:020000040000fa
:04016c002a0600005f
:020000040000fa
:040170002a0600005b
:020000040000fa
:040174002a06000057
:020000040000fa
:040178002a06000053
:020000040000fa
:04017c002a0600004f
:020000040000fa
:040180002a0600004b
:020000040000fa
:040184002a06000047
:020000040000fa
:040188002a06000043
:020000040000fa
:04018c002a0600003f
:020000040000fa
:040190002a0600003b
:020000040000fa
:040194002a06000037
:020000040000fa
:040198002a06000033
:020000040000fa
:04019c002a0600002f
:020000040000fa
:0401a0002a0600002b
:020000040000fa
:0401a4002a06000027
:020000040000fa
:0401a8002a06000023
:020000040000fa
:0401ac002a0600001f
:020000040000fa
:0401b0002a0600001b
:020000040000fa
:0401b4002a06000017
:020000040000fa
:0401b8002a06000013
:020000040000fa
:0401bc002a0600000f
:020000040000fa
:0401c0002a0600000b
:020000040000fa
:0401c4002a06000007
:020000040000fa
:0401c8002a06000003
:020000040000fa
:0401cc002a060000ff
:020000040000fa
:0401d0002a060000fb
:020000040000fa
:0401d4002a060000f7
:020000040000fa
:0401d8002a060000f3
:020000040000fa
:0401dc002a060000ef
:020000040000fa
:0401e0002a060000eb
:020000040000fa
:0401e4002a060000e7
:020000040000fa
:0401e8002a060000e3
:020000040000fa
:0401ec002a060000df
:020000040000fa
:0401f0002a060000db
:020000040000fa
:0401f4002a060000d7
:020000040000fa
:0401f8002a060000d3
:020000040000fa
:0401fc002a060000cf
:020000040000fa
:040200002a060000ca
:020000040000fa
:040204002a060000c6
:020000040000fa
:040208002a060000c2
:020000040000fa
:04020c002a060000be
:020000040000fa
:040210002a060000ba
:020000040000fa
:040214002a060000b6
:020000040000fa
:040218002a060000b2
:020000040000fa
:04021c002a060000ae
:020000040000fa
:040220002a060000aa
:020000040000fa
:040224002a060000a6
:020000040000fa
:040228002a060000a2
:020000040000fa
:04022c002a0600009e
:020000040000fa
:040230002a0600009a
:020000040000fa
:040234002a06000096
:020000040000fa
:040238002a06000092
:020000040000fa
:04023c002a0600008e
:020000040000fa
:040240002a0600008a
:020000040000fa
:040244002a06000086
:020000040000fa
:040248002a06000082
:020000040000fa
:04024c002a0600007e
:020000040000fa
:040250002a0600007a
:020000040000fa
:040254002a06000076
:020000040000fa
:040258002a06000072
:020000040000fa
:04025c002a0600006e
:020000040000fa
:040260002a0600006a
:020000040000fa
:040264002a06000066
:020000040000fa
:040268002a06000062
:020000040000fa
:04026c002a0600005e
:020000040000fa
:040270002a0600005a
:020000040000fa
:040274002a06000056
:020000040000fa
:040278002a06000052
:020000040000fa
:04027c002a0600004e
:020000040000fa
:040280002a0600004a
:020000040000fa
:040284002a06000046
:020000040000fa
:040288002a06000042
:020000040000fa
:04028c002a0600003e
:020000040000fa
:040290002a0600003a
:020000040000fa
:040294002a06000036
:020000040000fa
:040298002a06000032
:020000040000fa
:04029c002a0600002e
:020000040000fa
:0402a0002a0600002a
:020000040000fa
:0402a4002a06000026
:020000040000fa
:0402a8002a06000022
:020000040000fa
:0402ac002a0600001e
:020000040000fa
:0402b0002a0600001a
:020000040000fa
:0402b4002a06000016
:020000040000fa
:0402b8002a06000012
:020000040000fa
:0402bc002a0600000e
:020000040000fa
:0402c0002a0600000a
:020000040000fa
:0402c4002a06000006
:020000040000fa
:0402c8002a06000002
:020000040000fa
:0402cc002a060000fe
:020000040000fa
:0402d0002a060000fa
:020000040000fa
:0402d4002a060000f6
:020000040000fa
:0402d8002a060000f2
:020000040000fa
:0402dc002a060000ee
:020000040000fa
:0402e0002a060000ea
:020000040000fa
:0402e4002a060000e6
:020000040000fa
:0402e8002a060000e2
:020000040000fa
:0402ec002a060000de
:020000040000fa
:0402f0002a060000da
:020000040000fa
:0402f4002a060000d6
:020000040000fa
:0402f8002a060000d2
:020000040000fa
:0402fc002a060000ce
:020000040000fa
:040300002a060000c9
:020000040000fa
:040304002a060000c5
:020000040000fa
:040308002a060000c1
:020000040000fa
:04030c002a060000bd
:020000040000fa
:040310002a060000b9
:020000040000fa
:10040000cf1921000eff21000e018800000000001e
:10041000000020000000e000020032000001200087
:1004200020028800140007000c0207000000e00012
:1004300003003a00c06d21000100200002003700d7
:100440000000200001002000810f70000100320038
:100450000f000700000020000000e0000200320052
:100460000000020000000000f20b0200000000008b
:100470000040da000000fe00200020000000e00044
:1004800002003200100020009001880000000600e9
:10049000a1028800800478000000eb001f003700f4
:1004a000e284440054a0b4009905ba00e2844400f8
:1004b00054a0b4009906ba00e284440054a0b400e9
:1004c0000006eb00476fde00fd07b200ae018800ba
:1004d000636ce10003003a000ad801000000eb0061
:1004e0000e003700606ce10008003a00004deb00a0
:1004f0000a05e800020039003420ec000af0a000f0
:100500008b05e900f9ff3e00040037006168e10057
:10051000010032000086eb000b00070019c7ba008b
:100520000e04e0001905ba0003003a000a00e000da
:10053000dbff3a0000000600fe07b200ae028800b2
:100540008a047800f5ff37000cd0a300e20f4d00bd
:100550001c00390089027800354dba000a05e80010
:10056000020039003420ec000af0a0008b05e900fd
:100570000f003200254dba000a05e80002003900dc
:100580003420ec000af0a0008b05e90008003200de
:100590000c00e0000600320015cdba000a05e800a4
:1005a000020039003420ec000af0a0008b05e900bd
:1005b0008984e80054a0b4000b00e000e2ff3a0098
:1005c000000006009902ba00055d78008b05e9007d
:1005d000f7ff3200c82ade00055d78008b05e900d0
:1005e000f3ff32000c00e000f1ff320019ddba0029
:1005f000eeff3700000000000000000000000000d7
:100600000000000000000000000000003600f800bc
:10061000c028a9000000eb003c0b07003600f800e2
:100620003e0b0700c048a90010002000370b070050
:100630003600f800c068a90020002000330b070036
:100640003600f800c088a900300020002f0b0700fa
:100650003600f800c0a8a900400020002b0b0700be
:100660003600f800c608a90070002000270b07001c
:100670003600f80021468000001020000080600055
:100680000000e00003003200c508a900c0002000ff
:100690001e0b07002146800000002800008060003b
:1006a0000000e00003003200c5e8a900800020003f
:1006b000160b070021468000000220000080600029
:1006c0000000e00003003200c4a8a9009000200050
:1006d0000e0b070020468000700060000000e00064
:1006e00003003200c488a900a0002000070b070007
:1006f000ffff37003600f800809fbe00829fbe00db
:10070000849fbe00869fbe000000fa00104080005b
:10071000680060000000e00006003200d08c80001d
:100720000000e00002003200d08c800000000100d8
:100730000268a9000080fa004f03be004f02be000d
:100740004f01be004f00be003600f9000040060019
:100750003600f800809fbe00829fbe00849fbe00ce
:10076000869fbe000000fa000228a9002110800028
:1007700000082000008060000000e0000800320057
:1007800004e2a9005831ef00f08a800020009000b8
:100790008000eb00010878005e31ef000e013700a9
:1007a000c08a80008000eb00b2002000030020001f
:1007b000820f5000838f5800fd003e0000060100ac
:1007c0000b0037003a003700760037009d003700f5
:1007d000f4003700c9003700da003700f1003700b5
:1007e000dc003700f20037003500370051003700d9
:1007f0000015210020009000620060000000e00071
:10080000f4003a000015210010009000f08a8800e2
:100810000015210010009000104078005af1b70038
:10082000001521001000900010009000e08a880060
:100830000015210010009000e60040000015210086
:100840001100980000152100900090000015210073
:10085000808f500003003a0000152100a1142100f0
:10086000110098000015210020019000e1ff2f00e9
:100870008100610021009800001521009000900087
:100880000015210010007800808f500004003a000d
:1008900000152100a00090000110a0002100980088
:1008a0000002a80020002000c08a8800ca0037008b
:1008b0000022a80020002000c08a8800c60037005f
:1008c0002110800000002800008060000000e0008f
:1008d0000800320000152100604090008040e800d0
:1008e00000152100614098004000200077040700b7
:1008f000b9003700608b80008000d100f00f20002d
:100900000080600060108800608b800061006000e3
:10091000004078000004e00003003200b000200036
:10092000c08a8800ac00370030002000c08a8800f0
:10093000a90037002110800000002800008060001e
:100940000000e00008003200001521006040900027
:100950008040e80000152100614098004000200020
:100960005a0407009c0037000022a800608b80001a
:100970004800de00e6006000000f2000010070006b
:10098000608b8800608b80000000a000608b880076
:1009900010c0b3006ef1b70020002000c08a8800ac
:1009a0008d0037006ed1bf00e14f50000a003200c9
:1009b000e08a800010007800608b8800e08a800068
:1009c00020009000808b8800e08a8000204090000a
:1009d00072f1b700010037006e71ef00618b80008b
:1009e000f00f2000808f500009003600608b8000df
:1009f0004800de00e6006000000f200001007000eb
:100a000060108800a0002000c08a880072003700b3
:100a1000608b800060108800608b80006100600047
:100a2000004078000004e000030032005000200085
:100a3000c08a88006800370030002000c08a880023
:100a40006500370021108000000028000080600051
:100a50000000e00009003200001521006040900015
:100a60008040e800001521006140980005e2a900df
:100a700050002000150407005700370072d1bf0056
:100a80008080fb008100e900cf08de008140780013
:100a90000040e90072f1b7000104e00010003200ec
:100aa000e08a800066004000e08a88005ad1bf00da
:100ab0000040e9005af1b7005ad1bf000004e0003d
:100ac00003003a0020002000000407004200370025
:100ad0000022a80020002000c08a88003e003700c5
:100ae000808b8000904078008180fb00611088003e
:100af0000000e800808b880037003700211080005c
:100b000000002800008060000000e00009003200c2
:100b100000152100604090008040e8000015210091
:100b20006140980040002000e803070005e2a900aa
:100b3000290037000062a80080002000c08a8800d9
:100b40002500370080002000c08a88000062a800cd
:100b500021003700808b8000711080008140780078
:100b6000014878000000e800808b880072d1bf0047
:100b70000040e90072f1b70072d1bf000004e0004c
:100b80000400320000a2a90060002000c08a880092
:100b90000200370000a2a800bb0307000082a800e3
:100ba0000d00370020002000c80307000a003700ae
:100bb00000152100604090008040e80000152100f1
:100bc0006140980060002000c003070000000000a2
:100bd00001003700000000000080fa004f03be0053
:100be0004f02be004f01be004f00be003600f900ac
:100bf000004006003600f800809fbe00829fbe00c5
:100c0000849fbe00869fbe000000fa00a08c80007a
:100c10000000e00002003200a08c80000000010013
:100c200097d1bf000040e80097f1b70010c0b300b3
:100c300096f1b7000108a9000080fa004f03be003a
:100c40004f02be004f01be004f00be003600f9004b
:100c5000004006000040da000000fe000000050031
:100c6000839f68000100e00002003d00600010006a
:100c7000e08018000300e00002003d006001110068
:100c8000e0811900050007004f00e00002003b0072
:100c900060001000e0801800000006006022b8002c
:100ca000060220000000d0008180d2000482d20021
:100cb0008582d2000000a0000202520083825a0006
:100cc000030031000202420083824a000000a100ba
:100cd0000603e900f3ff3a000000060080007800f8
:100ce000010178003104e000fdff3a0000005100ee
:040cf00000000600fa
:020000040000fa
:100cf4000000fa000060fe000080fa000000060018
:100d04000600fa0010708000640060000000e0003b
:100d14002e00320050112100200798000040eb0003
:100d2400004f7800250037000040eb002047980072
:100d34000040eb0010479800160037000000000048
:100d440010708000700060000000e000fcff3200c2
:100d54002e40900000404000204798000000000012
:100d640010708000700060000000e000fcff3a009a
:100d7400107080000040780061406000ae40900038
:100d840000c07000204798001e4090000040e8001a
:100d9400104798001e409000e74f5000e7ff3600d0
:100da4002e009000ae409000014878002e00900084
:100db4000000e800200798001e4fe8001e4078005d
:100dc400e74f5000d8ff3600010037000000000054
:100dd4000080fa00000006000c00fa002010210038
:100de40030079800a010210040079800042ea800a6
:100df400003d20000100200035090700042ea90051
:100e04000040eb0020479800520037003e0090005d
:100e140090407800214f98003e0090000000e800c8
:100e2400300798004e00900090407800314f9800b1
:100e34004e0090000000e8004007980000c8b3008e
:100e4400404798000040eb00304798003b003700d3
:100e5400046ea800ae4890004e40900000c06000b0
:100e64000004e000020032001e00a000020037006f
:100e7400e0ff2f001e0f6000be4890004e4090001f
:100e840000c060000004e000020032001e10a00058
:100e940002003700d0ff2f001e0f60002111210037
:100ea400914078004e40900000c060000004e000d3
:100eb400020032001e40a00002003700f0fe2f00a6
:100ec4001e0f60002e4090000080fb00e1006000d7
:100ed4003011210000804000904078004e40900086
:100ee40000c060000004e000020032001e70a00098
:100ef40002003700f0f72f001e0f60009e007800fc
:100f0400c1708800b008200001002000f00807002c
:100f14004e4090000080fb000000d1004047980044
:100f2400046ea900c015200001002000e808070095
:100f34003e4090000040e800304798003e4090005a
:100f4400e74f5000c2ff36002e4090000040e800fa
:100f5400204798002e409000e74f5000abff36002a
:100f6400180ea900182ea900188ea90018eea900c1
:100f74000080fa00000006000000fa0020102100a2
:100f840001fa2000010878002010210001e2240069
:100f9400110098002010210001e224002100980093
:100fa4002010210001fa200031009800a010210037
:100fb40001e2240001087800a010210001fa2000b9
:100fc40011009800a010210001e2240021009800e3
:100fd400a010210001fa2000310098007eff0700d4
:100fe4000080fa00000006005200fa00889fbe004c
:100ff4008a9fbe008c9fbe00401f9800511f98001e
:10100400621f98004e189000de18900032002000f5
:101014000300200011ff0700101f9800211f9800f3
:101024004e199000de199000028fbe004e199000f8
:10103400de19900022079800330798001e199000cb
:10104400ae19900042079800530798001e199000ab
:10105400ae19900062079800730798001e1890005c
:10106400ae18900060001000e0801800000f980097
:10107400110f98000e0990009e099000220f98000d
:10108400330f98004e189000de1890006000100096
:10109400e0801800400f9800510f98004e0990000e
:1010a400de099000620f9800730f980000802c00f6
:1010b400210320001e0f40005e97480002002e000e
:1010c400e30220004e009000de009000000051007a
:1010d4008180590040079800510798000e0990003c
:1010e4009e09900000002e00e10220000200400052
:1010f40083804800000f9800110f980002c02e0052
:10110400c30220004e089000de0890000000510049
:1011140081805900400f9800510f98006e0990008b
:10112400fe09900000002e00e102200002004000b1
:1011340083804800600f9800710f980002802c0093
:10114400230320002e089000be08900000005100e8
:1011540081805900200f9800310f98006e01900093
:10116400fe01900000802f00a10220000200400038
:1011740083804800600798007107980002002e00e1
:10118400e30220002e009000be00900000005100f9
:101194008180590020079800310798001e007800cc
:1011a4009e009000e00f5000e08f580002003d00c8
:1011b4006000b800008fbe004e009000de0090007a
:1011c400e00f5000e08f580003003d006000b800bd
:1011d40040079800510798000e0890009e08900060
:1011e400e00f5000e08f580003003d006000b8009d
:1011f400000f9800110f98004e089000de08900030
:10120400e00f5000e08f580003003d006000b8007c
:10121400400f9800510f98006e089000fe0890004f
:10122400e00f5000e08f580003003d006000b8005c
:10123400600f9800710f98002e089000be0890006f
:10124400e00f5000e08f580003003d006000b8003c
:10125400200f9800310f98006e009000fe0090005f
:10126400e00f5000e08f580003003d006000b8001c
:1012740060079800710798002e009000be0090004f
:10128400e00f5000e08f580003003d006000b800fc
:1012940020079800310798001e0078009e009000f7
:1012a400c809dd004804de0008847100c88cde0033
:1012b400081798004e009000de009000c809dd0079
:1012c4004801de0002817100721f98004889de0027
:1012d40002279800fe199000131798000e0890003a
:1012e4009e089000c809dd004801de0002817100fb
:1012f400122798004889de00222798009e2190003a
:10130400231798004e089000de089000c809dd00fd
:101314004801de0002817100322798004889de000e
:1013240042279800be219000331798006e08900061
:10133400fe089000c809dd004801de00028171004a
:10134400522798004889de0062279800de21900029
:10135400431798002e089000be089000c809dd00cd
:101364004801de0002817100722798004889de007e
:10137400022f9800fe219000531798006e009000f1
:10138400fe0090004809dd004806de000c067100ee
:10139400c88ede006c1798002e009000be009000ee
:1013a400c809dd004805de000a857100c88dde002d
:1013b4007a1798006e1890000000e0007100350064
:1013c4008e10900000062f0000804000001f98003f
:1013d40001e224001e10900000805000301f98008d
:1013e400be1890000e189000808f5000020031004b
:1013f400be189000011f9800ae10900000062f0048
:1014040000804000301f9800be1890000e18900015
:10141400808f5000020031003e199000021f980096
:1014240001e224003e10900000805000301f98001c
:10143400be1890000e189000808f500002003100fa
:10144400be199000031f980001e224004e10900082
:1014540000805000301f9800be1890000e189000b5
:10146400808f500002003100be189000011f9800c8
:10147400de10900000062f0000804000301f98000e
:10148400be1890000e189000808f500002003100aa
:101494003e199000021f980001e224006e10900093
:1014a40000805000301f9800be1890000e18900065
:1014b400808f500002003100be199000031f980075
:1014c400fe10900000062f0000804000301f98009e
:1014d400be1890000e189000808f5000020031005a
:1014e400be189000011f9800ee1890000e1890008e
:1014f400808f5000020036000e199000621f980081
:101504006e1890008e109000008050000017980014
:101514006e1890009e1090000080400010179800f4
:101524006e189000ae1090000080500020179800b4
:101534006e189000be109000008040003017980094
:101544006e189000ce109000008040004017980064
:101554006e189000de109000008050005017980024
:101564006e189000ee109000008040006017980004
:101574006e189000fe1090000080500070179800c4
:10158400730037006e1890000000ea00601f980096
:1015940001e224000e10900000805000001f98000b
:1015a4009e10900000062f0000804000301f98001d
:1015b400be1890000e189000808f50000200310079
:1015c400be199000031f980001e224002e10900021
:1015d40000805000301f9800be1890000e18900034
:1015e400808f500002003100be189000011f980047
:1015f400be10900000062f0000804000301f9800ad
:10160400be1890000e189000808f50000200310028
:101614003e199000021f9800ce10900000062f0083
:1016240000804000301f9800be1890000e189000f3
:10163400808f500002003100be199000031f9800f3
:1016440001e224005e10900000805000301f9800da
:10165400be1890000e189000808f500002003100d8
:10166400be189000011f9800ee10900000062f0095
:1016740000804000301f9800be1890000e189000a3
:10168400808f5000020031003e199000021f980024
:1016940001e224007e10900000805000301f98006a
:1016a400be1890000e189000808f50000200310088
:1016b400be199000031f9800ee1890000e189000b9
:1016c400808f5000020036008e189000611f980031
:1016d4006e1890008e109000008040000017980053
:1016e4006e1890009e109000008050001017980013
:1016f4006e189000ae1090000080400020179800f3
:101704006e189000be1090000080500030179800b2
:101714006e189000ce109000008050004017980082
:101724006e189000de109000008040005017980062
:101734006e189000ee109000008050006017980022
:101744006e189000fe109000008040007017980002
:10175400201021002e119000020878002010210092
:10176400be1190001300980020102100de1090009c
:1017740021009800201021004e11900032009800a2
:10178400a0102100fe11900003087800a010210091
:10179400ee10900011009800a01021001e1190007e
:1017a40022009800a01021008e11900033009800b0
:1017b40089fd07004f06be004f05be004f04be0062
:1017c4000080fa00000006000000fa000001eb00af
:1017d4006000b80004fe07000080fa000000060064
:1017e4000c00fa00889fbe00a006070020682000b5
:1017f400810607000000eb00000f78006000b800cd
:101804001007980021079800efff070040ba27004f
:10181400a1062000ae06070060c0b30082010700e5
:101824001871ef0018d1bf0017f1b70017d1bf002e
:1018340016f1b70016d1bf0015f1b70000c8b30008
:101844001cf1b7001cd1bf001bf1b7001bd1bf00b6
:101854001af1b7001ad1bf0019f1b70000c8b300dc
:1018640014f1b70014d1bf0013f1b70013d1bf00b6
:1018740012f1b7001efd070019d1bf0013f1b70024
:1018840013d1bf0012f1b7001bd1bf0014f1b70090
:10189400c11121009140780061479800ee4090000a
:1018a40000c8b30080cf5000190036006e4090008d
:1018b4000080fb000008b10080004000000021000f
:1018c40000804000100078008000eb001e019000b2
:1018d400ae01900002004000838048001007980089
:1018e400210798001e019000ae019000000027001f
:1018f40071012000800f5100818f590004003400d1
:1019040000002700710120001007980021079800ab
:101914006e4090000004e0001a0035006e40900014
:101924000080fb000108200000805000800040007f
:101934000000210000804000100078008000eb00cf
:101944001e019000ae0190000000510081805900fa
:1019540010079800210798001e019000ae01900026
:101964000000290081fe2f00800f5100818f590053
:1019740004003d000000290081fe2f00100798009c
:101984002107980015d1bf000080fb0061006000b2
:101994000000e00002003a0077fd07001200370063
:1019a40080c0b3009d0107004007980051079800cc
:1019b4004e009000de0090004409dd004c04de007f
:1019c40008047100cc8cde00480798005907980081
:1019d4004e0090001e0f40001e0178001e00900073
:1019e400ae00900080fd0700800921001100200056
:1019f400370607009fff37000000fa00001521009a
:101a0400a11421001100980000152100a114210047
:101a14000108780000152100a00090000110a0002a
:101a2400210098000015210020019000e1ff2f0003
:101a34008100610021009800001521008040eb0026
:101a440061409800b0152000501088000000280064
:101a5400001088000422ef000228a9002228a80010
:101a64000080fa00000006000200fa0000152100c0
:101a7400e0409000014f78001e4078000080fa009a
:101a8400000006000000fa00e08a800066004000c2
:101a9400e08a88005ad1bf000040e9005af1b7003b
:101aa4005ad1bf000004e00003003a0040002000c7
:101ab400c08a88000200370010002000c08a880015
:101ac4000080fa00000006000200fa00000f78000f
:101ad4000042a800f08a8000200090000000e0008e
:101ae40003003200f08a8000200090001e08780075
:101af4005831ef000080fa00000006000800fa00e8
:101b0400000f7800214798002207980033079800b7
:101b14000015210020009000610060000000e0003a
:101b24000a003a00ae0190002e4190009e00780019
:101b340060162100780007003e0190006116210024
:101b440010c0b3001f000700030037003e009000e0
:101b54008000eb00010878000080fa000000060015
:101b64000800fa00000f7800214798002207980027
:101b740033079800001521002000900061006000e8
:101b84000000e0000a003a00ae0190002e419000ef
:101b94009e00780000162100470007003e019000d7
:101ba4000116210010c0b30006000700030037002f
:101bb4003e0090008000eb00010878000080fa00ed
:101bc400000006000600fa00004f78001107980094
:101bd4002207980000152100200090006100600099
:101be4000000e0002f003a002e00900011002000b9
:101bf4000108780000152100100078009e00900074
:101c04001100980000152100100078001e4878008b
:101c14000015210010007800ae009000210098000b
:101c24000015210010007800e60040000015210096
:101c340001087800001521009000780000152100ab
:101c4400808f500003003a0000152100a1142100e8
:101c5400010878000015210020019000d1ff2f0019
:101c6400810061002100980000152100900090007f
:101c74000015210010007800808f500004003a0005
:101c840000152100a00090000100a0002100980090
:101c9400c08a80000000e00005003a000228a80085
:101ca400030037002e0090008000eb00010878004c
:101cb4000080fa00000006000800fa00000f780017
:101cc4001107980042479800330798003e0090009f
:101cd40000004000800078001e00780001087800b1
:101ce4001e00780010007800800078000100a00039
:101cf4001e007800010878001e007800ce40900095
:101d0400214098001e0078009e0090002100980059
:101d14000080fa00000006000800fa00000f7800b6
:101d24001107980042479800330798003e0090003e
:101d340000004000800078001e0078000108780050
:101d44001e007800ce409000214098001e007800cc
:101d54009e009000210098000080fa000000060018
:101d64000000fa00001521002000900062006000cd
:101d740000f0a7000000ea000000ea004f00de00c7
:101d8400004078000080fa00000006000000fa001d
:101d940000152100200090006100600000f0a70001
:101da4000000ea000000ea004f00de000040780076
:101db4000080fa00000006000200fa00004f7800dc
:101dc40011479800ec010700a0c3b3000502070007
:101dd400470207001e407800020207004402070081
:101de4001e409000ff01070041020700f1010700b7
:101df4000080fa00000006000200fa00004f78009c
:101e0400dd010700a0c3b300f60107003802070094
:101e14001e407800f301070035020700e5010700c2
:101e24000080fa00000006000200fa00004f78006b
:101e34009e40780080c2b300dfff07008040eb00c3
:101e4400d0c2b300dcff07000080fa0000000600e7
:101e54000600fa00200798002e009000f400b90054
:101e6400000f7800d0252a009e007800808f500053
:101e74000a003e00702b2a001e0f50009e007800be
:101e840050a825000008b8004608de00000f7800be
:101e94001e007800004078000c003700d0df2500d9
:101ea4001e0f40009e00780050a825000008b800ce
:101eb4004608de00000f78001e00780020479800d6
:101ec4001e007800004078000040ea000080fa001c
:101ed400000006000200fa00889fbe008a9fbe0030
:101ee4008c9fbe00000f780080c0b300c2ff0700c3
:101ef400a1010700b0c3b300ba010700fc01070049
:101f0400db0107009e007800b0409800070207003c
:101f1400d70107009e007800a04098000302070044
:101f2400d30107009e00780090409800ff0107004d
:101f34001e00780090009000100078004409dd0035
:101f44004c06de000c067100cc8ede001e0078000c
:101f54000c88be00c60107009e007800f04098007f
:101f6400f2010700c20107009e007800e0409800db
:101f7400ee010700be0107009e007800d0409800e3
:101f8400ea0107001e007800b000900020009000d5
:101f94004409dd004c05de000a057100cc8dde002d
:101fa4001e0078002a0098003b009800b00107004a
:101fb4009e007800b0489800dc010700ac010700df
:101fc4009e007800a0489800d8010700a8010700e7
:101fd4009e00780090489800e3010700750107000f
:101fe4001e007800d0009000400090004409dd00fd
:101ff4004c04de0008047100cc8cde001e00780066
:1020040048009800590098004f06be004f05be00d6
:102014004f04be000080fa00000006000600fa002b
:10202400889fbe00404798004e40900072ff070012
:1020340051010700b0c3b3006a010700ac010700f7
:102044008b01070030479800b8010700880107009a
:1020540020479800b5010700850107001047980044
:10206400c1010700530107001e0078009e00900084
:102074004409dd004c04de0008047100cc8cde0051
:10208400088fbe001e0078009e0090004f04be0022
:102094000080fa00000006000000fa00008820001a
:1020a400101388001000200020138800c0002800ae
:1020b400001388000080fa00000006000400fa0003
:1020c400000f780011079800000000000013800042
:1020d400620060000000e000fcff3a001e0078008f
:1020e400104078000080fb004013880000000000ce
:1020f4000113800000022000008060000000e00066
:10210400fbff3a0040138000804078001e009000de
:10211400014878000080fa00000006001800fa0068
:10212400100f9800210f9800320f98000000eb0068
:10213400000f78000000eb00100798000000eb008f
:10214400700798000000eb00000f980010002000ba
:10215400600798001e0890000000e00005003a00a7
:102164000000eb005007980070004700200798001b
:1021740004003700ee009000510798009e0890007c
:10218400210798003e0890000000e00005003a0096
:102194000000eb00400798006e00470030079800ed
:1021a40005003700ee00900041079800be0890003b
:1021b40031079800000000000013800062006000f6
:1021c4000000e000fcff3a001d003700001380000f
:1021d400620060000000e00009003a002e00900058
:1021e400104078000080fb0040138800ae0090008f
:1021f4005e00900000804000200798001e0fe80059
:102204000113800000022000008060000000e00054
:102214000b003a0040138000804078003e0090009c
:1022240001487800be0090004e00900000804000fd
:10223400300798001e0090000000e8001007980086
:102244002e0890009e007800808f5000dfff390038
:10225400100037000113800000022000008060009d
:102264000000e0000b003a0040138000804078003a
:102274003e00900001487800be0090004e0090009f
:1022840000804000300798001e0090000000e80025
:10229400100798009e0090002e089000808f500038
:1022a400ecff39001e0078000080fa0000000600f0
:1022b4000400fa00204798000e80e8008e007800a1
:1022c4007eff07001e4078000080fa000000060030
:1022d4000600fa00000f7800110798002207980002
:1022e4002e0190009e0090001e0078008bff0700d6
:1022f4000080fa00000006000000fa0011138000bc
:1023040000402000008060000000e00002003a006d
:102314000000eb0001003700100020000080fa00ec
:10232400000006000000fa00001380000080fa009c
:10233400000006000000fa00022cef0000902100cb
:1023440020608800062cef000a2cef001a2cef0006
:102354001e2cef0000082000006188000008200007
:10236400006288000008200000638800000c2b0035
:10237400e3c1200011322400d2bc2a008209780073
:102384008109780010618800000c2b00e3c1200053
:1023940011322400d2bc2a00820978008109780015
:1023a40010628800000c2b00e3c1200011322400cd
:1023b400d2bc2a0082097800810978001063880061
:1023c400b00f2000e3c1200011322400d2bc2a0047
:1023d400820978008109780020618800b00f20000c
:1023e400e3c1200011322400d2bc2a008209780003
:1023f4008109780020628800b00f2000e3c120002a
:1024040011322400d2bc2a008209780081097800a4
:1024140020638800262cef00462cef00662cef008a
:10242400282cef00482cef00682cef004006200019
:102434005061880040062000506288004006200059
:10244400506388002c2cef004c2cef006c2cef0018
:10245400322cef00522cef00722cef00342cef00e2
:10246400542cef00742cef00382cef00582cef00a4
:10247400782cef003a2cef005a2cef007a2cef0066
:102484003c2cef005c2cef007c2cef003e2cef008a
:102494005e2cef007e2cef00000028000060880016
:1024a4000080fa00000006000000fa000080fa0034
:1024b400000006000000fa003140800000202000e7
:1024c400008060000000e00002003200f6ff070018
:1024d4000728a9000080fa00000006000000fa00a6
:1024e4000080fa00000006000000fa00314080007d
:1024f40000202000008060000000e00002003200a4
:10250400f6ff07000bc8a9000080fa0000000600cf
:102514000000fa000080fa00000006000000fa0043
:102524003140800000202000008060000000e000b6
:1025340002003200f6ff07000be8a9000080fa0051
:10254400000006000000fa000080fa000000060007
:102554000000fa003140800000202000008060006c
:102564000000e00002003200f6ff07000c08a9009a
:102574000080fa00000006000000fa0014aea90072
:1025840018aea80014cea90018cea800b0082000e8
:10259400010020004e03070018aea900b008200077
:1025a400010020004a03070018cea9000080fa00a9
:1025b400000006000000fa0014aea90018aea9003d
:1025c40014cea90018cea800b008200001002000f5
:1025d4003f03070014aea80014cea8000080fa0040
:1025e400000006000400fa002047980014aea90079
:1025f40014cea900ae409000014f780080c0b30013
:1026040010479800140037001e4078000004e000d2
:1026140002003d0018aea8000100370018aea90062
:102624001e40780000404000004f780018cea800fb
:1026340070112000010020002503070018cea90016
:10264400100d200001002000210307001e4090000f
:102654000040e900104798001e4090000004e0008c
:10266400e9ff3a0014aea8000080fa00000006005a
:102674000200fa0014aea80014cea90080c0b30072
:102684001047980014003700500420000100200077
:102694000f03070018cea8001e4078000040400039
:1026a400004f7800b17080000002200000806000bc
:1026b4000000e000020032001e04a0000200370007
:1026c400e0cfb3001e4f600018cea9001e4090005a
:1026d4000040e900104798001e4090000004e0000c
:1026e400e9ff3a001e4078000080fa00000006006e
:1026f4000200fa0014aea80014cea90018cea80057
:102704005004200001002000f1020700b070800096
:102714004500de0061406000004f780018cea9003b
:102724001e4078000080fa00000006000000fa0055
:1027340014aea90018aea90014cea90050042000bc
:1027440001002000e202070018cea800b008200013
:1027540001002000de02070018cea90014aea80074
:102764000080fa00000006000000fa0014aea90080
:1027740018aea80014cea90018cea800500420005a
:1027840001002000d202070018cea9005004200046
:1027940001002000ce02070014aea8000080fa0059
:1027a400000006000000fa00003a80000080fa00f1
:1027b400000006000200fa00faff0700000f78008c
:1027c4001e007800240007000004e000020032002c
:1027d40000002800710007001e0078002a0007008e
:1027e4000004e00002003200000024006b00070037
:1027f4001e007800320007000004e00002003200ee
:1028040000202000650007001e0078003a00070041
:102814000004e00002003200000820005f0007000e
:102824001e007800420007000004e00002003200ad
:1028340000042000590007001e0078004a00070029
:102844000004e000020032000001200053000700f1
:102854000080fa00000006000400fa001007980047
:102864000040eb00004f78001e0090000000e000e4
:1028740002003d0010c0b300004f78001e407800f5
:102884000080fa00000006000400fa001007980017
:102894000040eb00004f78009e00900000002400f0
:1028a400008060000000e0000200320010c0b300ad
:1028b400004f78001e4078000080fa0000000600f7
:1028c4000400fa00100798000040eb00004f780065
:1028d4009e00900000202000008060000000e000c6
:1028e4000200320010c0b300004f78001e40780090
:1028f4000080fa00000006000400fa0010079800a7
:102904000040eb00004f78009e009000000820007b
:10291400008060000000e0000200320010c0b3003c
:10292400004f78001e4078000080fa000000060086
:102934000400fa00100798000040eb00004f7800f4
:102944009e00900000042000008060000000e00071
:102954000200320010c0b300004f78001e4078001f
:102964000080fa00000006000400fa001007980036
:102974000040eb00004f78001e00900070006000e3
:102984000000e0000200320010c0b300004f7800e5
:102994001e4078000080fa00000006000200fa00e1
:1029a400000f78009e80ea00003a800000806000fa
:1029b400003a88000080fa00000006000000fa00d7
:1029c4004027ef000080fa00000006000200fa0031
:1029d400004f780010c0b3003700070080092100c1
:1029e400110020003a02070000c8b3009e4078009e
:1029f40080cf5000030032001e4078002e000700f4
:102a040001003700000000000080fa00000006000a
:102a14000600fa0020079800d7fe0700c0c7b300dd
:102a2400f0fe070032ff07002e009000aaf807000e
:102a34002047980010c0b3001047980017003700d3
:102a440000ccb300004f78009e4090002e409000d0
:102a540080cf500002003a0000c4b300004f780059
:102a64001e407800dffe070021ff07002e009000c3
:102a740010407800004f78002e0090000000e8001d
:102a8400200798001e407800d6fe070018ff0700b4
:102a94001e4090000040e800104798009e409000bf
:102aa4002e40900080cf5000e5ff3400c1fe0700a7
:102ab4000080fa00000006000200fa00004f7800cf
:102ac400adfe0700c0c7b300c6fe070008ff07003d
:102ad4000040eb00c3fe070005ff07001e4078001e
:102ae400c0fe070002ff0700b2fe07000080fa00e4
:102af400000006000200fa00004f7800b07d2900b3
:102b0400a1022000f201070080c3b300eaff07001e
:102b1400d082200001002000ed01070090c3b30023
:102b2400e5ff0700d082200001002000e801070033
:102b340040c1b300e0ff0700d08220000100200064
:102b4400e30107009e4078006fc060000047b000ba
:102b5400d9ff0700d082200001002000dc0107001b
:102b64001e80fb004400de00004078004045b000b9
:102b7400d1ff0700d082200001002000d40107000b
:102b8400c0c6b300ccff070090742f00410d200095
:102b9400cf01070080c3b300c7ff0700d082200025
:102ba40001002000ca010700c0c0b300c2ff070033
:102bb400d082200001002000c501070010c0b3002e
:102bc400bdff07001013220021002000c0010700f0
:102bd4000080fa00000006000000fa000a21ef005d
:102be400a0102000700888000621ef00b0512300d7
:102bf400600888008000280080088800a08c80007d
:102c04000000e00002003a00806821004200070052
:102c14000108a9002108a8009671ef000080fa00bd
:102c2400000006000400fa00008fbe001e007800b9
:102c3400600888001e0078009e0090004008de00b6
:102c440000007800700888000080fa000000060088
:102c54000400fa000080eb008080eb00008fbe00cf
:102c6400700880008000eb00c001dd00020020003d
:102c7400600880008000eb00001f71000197710064
:102c84001e0078009e0090000080fa0000000600fc
:102c94000400fa00008fbe001e0078009e00900021
:102ca4004008de0000007800400888001e0078001c
:102cb400300888000080fa00000006000800fa00ce
:102cc4000080eb008080eb00008fbe0031088000a4
:102cd4002107980041088000310798003e009000c9
:102ce4008000eb00c001dd00020020002e009000f7
:102cf4008000eb00001f7100019771001e00780036
:102d04009e0090000080fa00000006000000fa0017
:102d14000080fa00000006000200fa00000f7800ac
:102d24002108a9009e007800a18c88002108a80031
:102d34000080fa00000006000000fa009671ef001f
:102d44002108a80011e1a8000080fa000000060094
:102d54000000fa0011e1a9002108a9000080fa008e
:102d6400000006000200fa00611921009140780079
:102d7400014f78001e4078000004e000010032009a
:102d84009671ef001e4078000080fa0000000600f3
:102d94000000fa0097d1bf000080fb000080fa0019
:102da400000006000000fa009771ef000080fa00ae
:042db4000000060015
:020000040000fa
:102db800981100000200000082000000ffff0000e0
:102dc8007411000020000000800000009a1100002b
:102dd80002000000800000004a1100002a000000e4
:102de8008000000094110000040000008000000032
:102df800001000000201000082000000140015000d
:102e080000160000160017000018000019001a002c
:102e1800001b00001c001d00001e000020002100f7
:102e280000220000230025000026000028002900b9
:102e3800002b00002d002e0000300000320034006e
:102e48000036000038003a00003d00003f00410015
:102e58000044000047004900004c00004f005200a9
:102e68000055000059005c00006000006400670025
:102e7800006b000070007400007800007d00820084
:102e8800008700008c009200009700009d00a300be
:102e980000aa0000b000b70000be0000c600ce00c7
:102ea80000d60000de00e70000f00000f900030093
:102eb800010d010017012200012d01003901450013
:102ec800015201005f016d00017b01008a01990038
:102ed80001a90100b901cb0001dc0100ef010200ea
:102ee800021602002b024100025702006f028700ff
:102ef80002a00200ba02d50002f202000f032d0060
:102f0800034d03006e03900003b40300d903ff00d0
:102f18000327040050047b0004a80400d60406001c
:102f2800053905006d05a30005db050015065200ef
:102f380006910600d2061600075d0700a607f300f3
:102f4800074208009408ea00084209009f09ff00a8
:102f580009ff09000211000048000000800000007d
:042f68000000000065
:020000040000fa
:102f6c000000fa00008124000058880010022000a4
:102f7c0010588800062bef00000021002058880014
:102f8c000a2bef00082bef000c2bef000e2bef00a1
:102f9c000088a9000001240080588800122bef0043
:102fac00162bef0000002100a05888001a2bef0010
:102fbc00182bef001c2bef001e2bef0001c8a900f3
:102fcc00202bef00222bef00262bef00000021001e
:102fdc00205988002a2bef00282bef002c2bef0018
:102fec002e2bef000308a900302bef00322bef0043
:102ffc00362bef0000002100a05988003a2bef007f
:10300c00382bef003c2bef003e2bef000488a9007f
:10301c0001eba8000080fa00000006000000fa0096
:10302c000080fa00000006000000fa00004080005a
:10303c00700060000000e00002003200f7ff0700a3
:10304c000088a9000080fa00000006000000fa00c9
:10305c000080fa00000006000000fa000140800029
:10306c0000002400008060000000e000020032003c
:10307c00f6ff070001c8a9000080fa000000060056
:10308c000000fa000080fa00000006000000fa00c0
:10309c001140800000102000008060000000e00063
:1030ac0002003200f6ff07000308a9000080fa00b6
:1030bc00000006000000fa000080fa000000060084
:1030cc000000fa0020408000700060000000e0006a
:1030dc0002003200f7ff07000488a9000080fa0004
:1030ec00000006000000fa0000202300203a8800af
:1030fc004827ef004e27ef00d0122000303a88000e
:10310c006027ef006227ef006427ef006627ef00cf
:10311c006a27ef006c27ef006e27ef0012002000eb
:10312c0080072000a109200033742000804978001a
:10313c008149780082497800120020006004200048
:10314c0071052000237420008049780081497800a3
:10315c008249780000000000103a80006100600095
:10316c000000e000fcff3a0000000000113a800073
:10317c0000022000008060000000e000fbff320035
:10318c000080fa00000006000000fa00042eef0098
:10319c00182eef005001200000708800c0f62f00a0
:1031ac00a07088000c2eef00202eef000a2eef00ee
:1031bc0000f02f00f0708800062eef001a2eef00a2
:1031cc000e2eef00222eef00084ea800808f21005b
:1031dc00070007000268a9002268a8000080fa0016
:1031ec00000006000000fa000080fa000000060053
:1031fc000200fa00000f78002268a9009e007800f7
:10320c00d18c88002268a8000080fa00000006001b
:10321c000200fa00000f78001e007800f4ff07008f
:10322c000080fa00000006000200fa00000f78008f
:10323c0021028000200f2000008060001e00700022
:10324c00200288000080fa00000006000000fa004e
:10325c00c3e8a80000000000000000000080fa0095
:10326c00000006000000fa00c7ff07009dff0700e2
:10327c002e000700f5ff070000022000eaff070000
:10328c000080fa00000006000000fa0095ff07001d
:10329c000080fa00000006000000fa00003a8000ee
:1032ac000080fa00000006000000fa003ffd070055
:1032bc000080fa00000006000000fa00bdfd0700c7
:0832cc000080fa00000006007a
:020000040000fa
:1032d400f03fb1000180b10006003500ee030900a3
:1032e40000000000403fb1000180b100fbff3d0041
:1032f4001000b000203fb00002003500008009003b
:083304000000000000000600bb
:020000040000fa
:10330c00000f78009e007800c18c8800ffff37000a
:10331c000000fa004017210080077800c018210037
:10332c00000188000080fa00000006000000fa008e
:10333c0041428000000027000100700040428800dc
:08334c000080fa0000000600f9
:020000040000fa
:04af0000ffff00004f
:020000040000fa
:04af2000ffff00002f
:020000040000fa
:04af3000f8ff000026
:020000040000fa
:04af38007bff00009b
:020000040000fa
:04af4000f8ff000016
:020000040000fa
:04af4800ffff000007
:020000040000fa
:04af5000ffff0000ff
:020000040000fa
:04af580000000000f5
:020000040000fa
:04af600000000000ed
:020000040000fa
:04af680000000000e5
:020000040000fa
:04af700000000000dd
:020000040000fa
:04af7800feff0000d8
:020000040000fa
:04af8000ffff0000cf
:020000040000fa
:04af8800ffff0000c7
:00000001FF
